{
	"contracts/Donation.sol": {
		"DonationContract": {
			"abi": [
				{
					"anonymous": false,
					"inputs": [
						{
							"indexed": true,
							"internalType": "address",
							"name": "donor",
							"type": "address"
						},
						{
							"indexed": false,
							"internalType": "uint256",
							"name": "amount",
							"type": "uint256"
						}
					],
					"name": "DonationReceived",
					"type": "event"
				},
				{
					"inputs": [],
					"name": "donate",
					"outputs": [],
					"stateMutability": "payable",
					"type": "function"
				},
				{
					"inputs": [
						{
							"internalType": "address",
							"name": "",
							"type": "address"
						}
					],
					"name": "donors",
					"outputs": [
						{
							"internalType": "uint256",
							"name": "amount",
							"type": "uint256"
						},
						{
							"internalType": "bool",
							"name": "exists",
							"type": "bool"
						}
					],
					"stateMutability": "view",
					"type": "function"
				},
				{
					"inputs": [
						{
							"internalType": "address",
							"name": "donorAddress",
							"type": "address"
						}
					],
					"name": "getDonorAmount",
					"outputs": [
						{
							"internalType": "uint256",
							"name": "",
							"type": "uint256"
						}
					],
					"stateMutability": "view",
					"type": "function"
				},
				{
					"inputs": [],
					"name": "getTotalDonations",
					"outputs": [
						{
							"internalType": "uint256",
							"name": "",
							"type": "uint256"
						}
					],
					"stateMutability": "view",
					"type": "function"
				},
				{
					"inputs": [],
					"name": "totalDonations",
					"outputs": [
						{
							"internalType": "uint256",
							"name": "",
							"type": "uint256"
						}
					],
					"stateMutability": "view",
					"type": "function"
				}
			],
			"devdoc": {
				"kind": "dev",
				"methods": {},
				"version": 1
			},
			"evm": {
				"assembly": "    /* \"contracts/Donation.sol\":60:1535  contract DonationContract {... */\n  mstore(0x40, 0x80)\n  callvalue\n  dup1\n  iszero\n  tag_1\n  jumpi\n  0x00\n  dup1\n  revert\ntag_1:\n  pop\n  dataSize(sub_0)\n  dup1\n  dataOffset(sub_0)\n  0x00\n  codecopy\n  0x00\n  return\nstop\n\nsub_0: assembly {\n        /* \"contracts/Donation.sol\":60:1535  contract DonationContract {... */\n      mstore(0x40, 0x80)\n      jumpi(tag_1, lt(calldatasize, 0x04))\n      shr(0xe0, calldataload(0x00))\n      dup1\n      0x777c658f\n      eq\n      tag_2\n      jumpi\n      dup1\n      0x94b9eac5\n      eq\n      tag_3\n      jumpi\n      dup1\n      0xca0cdea8\n      eq\n      tag_4\n      jumpi\n      dup1\n      0xde2ed893\n      eq\n      tag_5\n      jumpi\n      dup1\n      0xed88c68e\n      eq\n      tag_6\n      jumpi\n    tag_1:\n      0x00\n      dup1\n      revert\n        /* \"contracts/Donation.sol\":1201:1302  function getTotalDonations() external view returns (uint256) {... */\n    tag_2:\n      callvalue\n      dup1\n      iszero\n      tag_7\n      jumpi\n      0x00\n      dup1\n      revert\n    tag_7:\n      pop\n      tag_8\n      tag_9\n      jump\t// in\n    tag_8:\n      mload(0x40)\n      tag_10\n      swap2\n      swap1\n      tag_11\n      jump\t// in\n    tag_10:\n      mload(0x40)\n      dup1\n      swap2\n      sub\n      swap1\n      return\n        /* \"contracts/Donation.sol\":1401:1532  function getDonorAmount(address donorAddress) external view returns (uint256) {... */\n    tag_3:\n      callvalue\n      dup1\n      iszero\n      tag_12\n      jumpi\n      0x00\n      dup1\n      revert\n    tag_12:\n      pop\n      tag_13\n      0x04\n      dup1\n      calldatasize\n      sub\n      dup2\n      add\n      swap1\n      tag_14\n      swap2\n      swap1\n      tag_15\n      jump\t// in\n    tag_14:\n      tag_16\n      jump\t// in\n    tag_13:\n      mload(0x40)\n      tag_17\n      swap2\n      swap1\n      tag_11\n      jump\t// in\n    tag_17:\n      mload(0x40)\n      dup1\n      swap2\n      sub\n      swap1\n      return\n        /* \"contracts/Donation.sol\":291:330  mapping(address => Donor) public donors */\n    tag_4:\n      callvalue\n      dup1\n      iszero\n      tag_18\n      jumpi\n      0x00\n      dup1\n      revert\n    tag_18:\n      pop\n      tag_19\n      0x04\n      dup1\n      calldatasize\n      sub\n      dup2\n      add\n      swap1\n      tag_20\n      swap2\n      swap1\n      tag_15\n      jump\t// in\n    tag_20:\n      tag_21\n      jump\t// in\n    tag_19:\n      mload(0x40)\n      tag_22\n      swap3\n      swap2\n      swap1\n      tag_23\n      jump\t// in\n    tag_22:\n      mload(0x40)\n      dup1\n      swap2\n      sub\n      swap1\n      return\n        /* \"contracts/Donation.sol\":381:410  uint256 public totalDonations */\n    tag_5:\n      callvalue\n      dup1\n      iszero\n      tag_24\n      jumpi\n      0x00\n      dup1\n      revert\n    tag_24:\n      pop\n      tag_25\n      tag_26\n      jump\t// in\n    tag_25:\n      mload(0x40)\n      tag_27\n      swap2\n      swap1\n      tag_11\n      jump\t// in\n    tag_27:\n      mload(0x40)\n      dup1\n      swap2\n      sub\n      swap1\n      return\n        /* \"contracts/Donation.sol\":583:1117  function donate() external payable {... */\n    tag_6:\n      tag_28\n      tag_29\n      jump\t// in\n    tag_28:\n      stop\n        /* \"contracts/Donation.sol\":1201:1302  function getTotalDonations() external view returns (uint256) {... */\n    tag_9:\n        /* \"contracts/Donation.sol\":1253:1260  uint256 */\n      0x00\n        /* \"contracts/Donation.sol\":1280:1294  totalDonations */\n      sload(0x01)\n        /* \"contracts/Donation.sol\":1273:1294  return totalDonations */\n      swap1\n      pop\n        /* \"contracts/Donation.sol\":1201:1302  function getTotalDonations() external view returns (uint256) {... */\n      swap1\n      jump\t// out\n        /* \"contracts/Donation.sol\":1401:1532  function getDonorAmount(address donorAddress) external view returns (uint256) {... */\n    tag_16:\n        /* \"contracts/Donation.sol\":1470:1477  uint256 */\n      0x00\n        /* \"contracts/Donation.sol\":1497:1503  donors */\n      dup1\n        /* \"contracts/Donation.sol\":1497:1517  donors[donorAddress] */\n      0x00\n        /* \"contracts/Donation.sol\":1504:1516  donorAddress */\n      dup4\n        /* \"contracts/Donation.sol\":1497:1517  donors[donorAddress] */\n      0xffffffffffffffffffffffffffffffffffffffff\n      and\n      0xffffffffffffffffffffffffffffffffffffffff\n      and\n      dup2\n      mstore\n      0x20\n      add\n      swap1\n      dup2\n      mstore\n      0x20\n      add\n      0x00\n      keccak256\n        /* \"contracts/Donation.sol\":1497:1524  donors[donorAddress].amount */\n      0x00\n      add\n      sload\n        /* \"contracts/Donation.sol\":1490:1524  return donors[donorAddress].amount */\n      swap1\n      pop\n        /* \"contracts/Donation.sol\":1401:1532  function getDonorAmount(address donorAddress) external view returns (uint256) {... */\n      swap2\n      swap1\n      pop\n      jump\t// out\n        /* \"contracts/Donation.sol\":291:330  mapping(address => Donor) public donors */\n    tag_21:\n      mstore(0x20, 0x00)\n      dup1\n      0x00\n      mstore\n      keccak256(0x00, 0x40)\n      0x00\n      swap2\n      pop\n      swap1\n      pop\n      dup1\n      0x00\n      add\n      sload\n      swap1\n      dup1\n      0x01\n      add\n      0x00\n      swap1\n      sload\n      swap1\n      0x0100\n      exp\n      swap1\n      div\n      0xff\n      and\n      swap1\n      pop\n      dup3\n      jump\t// out\n        /* \"contracts/Donation.sol\":381:410  uint256 public totalDonations */\n    tag_26:\n      sload(0x01)\n      dup2\n      jump\t// out\n        /* \"contracts/Donation.sol\":583:1117  function donate() external payable {... */\n    tag_29:\n        /* \"contracts/Donation.sol\":649:650  0 */\n      0x00\n        /* \"contracts/Donation.sol\":637:646  msg.value */\n      callvalue\n        /* \"contracts/Donation.sol\":637:650  msg.value > 0 */\n      gt\n        /* \"contracts/Donation.sol\":629:684  require(msg.value > 0, \"Amount must be greater than 0\") */\n      tag_33\n      jumpi\n      mload(0x40)\n      0x08c379a000000000000000000000000000000000000000000000000000000000\n      dup2\n      mstore\n      0x04\n      add\n      tag_34\n      swap1\n      tag_35\n      jump\t// in\n    tag_34:\n      mload(0x40)\n      dup1\n      swap2\n      sub\n      swap1\n      revert\n    tag_33:\n        /* \"contracts/Donation.sol\":778:784  donors */\n      0x00\n        /* \"contracts/Donation.sol\":778:796  donors[msg.sender] */\n      dup1\n        /* \"contracts/Donation.sol\":785:795  msg.sender */\n      caller\n        /* \"contracts/Donation.sol\":778:796  donors[msg.sender] */\n      0xffffffffffffffffffffffffffffffffffffffff\n      and\n      0xffffffffffffffffffffffffffffffffffffffff\n      and\n      dup2\n      mstore\n      0x20\n      add\n      swap1\n      dup2\n      mstore\n      0x20\n      add\n      0x00\n      keccak256\n        /* \"contracts/Donation.sol\":778:803  donors[msg.sender].exists */\n      0x01\n      add\n      0x00\n      swap1\n      sload\n      swap1\n      0x0100\n      exp\n      swap1\n      div\n      0xff\n      and\n        /* \"contracts/Donation.sol\":773:1013  if (!donors[msg.sender].exists) {... */\n      tag_36\n      jumpi\n        /* \"contracts/Donation.sol\":841:930  Donor({... */\n      mload(0x40)\n      dup1\n      0x40\n      add\n      0x40\n      mstore\n      dup1\n        /* \"contracts/Donation.sol\":874:883  msg.value */\n      callvalue\n        /* \"contracts/Donation.sol\":841:930  Donor({... */\n      dup2\n      mstore\n      0x20\n      add\n        /* \"contracts/Donation.sol\":910:914  true */\n      0x01\n        /* \"contracts/Donation.sol\":841:930  Donor({... */\n      iszero\n      iszero\n      dup2\n      mstore\n      pop\n        /* \"contracts/Donation.sol\":820:826  donors */\n      0x00\n        /* \"contracts/Donation.sol\":820:838  donors[msg.sender] */\n      dup1\n        /* \"contracts/Donation.sol\":827:837  msg.sender */\n      caller\n        /* \"contracts/Donation.sol\":820:838  donors[msg.sender] */\n      0xffffffffffffffffffffffffffffffffffffffff\n      and\n      0xffffffffffffffffffffffffffffffffffffffff\n      and\n      dup2\n      mstore\n      0x20\n      add\n      swap1\n      dup2\n      mstore\n      0x20\n      add\n      0x00\n      keccak256\n        /* \"contracts/Donation.sol\":820:930  donors[msg.sender] = Donor({... */\n      0x00\n      dup3\n      add\n      mload\n      dup2\n      0x00\n      add\n      sstore\n      0x20\n      dup3\n      add\n      mload\n      dup2\n      0x01\n      add\n      exp(0x0100, 0x00)\n      dup2\n      sload\n      dup2\n      0xff\n      mul\n      not\n      and\n      swap1\n      dup4\n      iszero\n      iszero\n      mul\n      or\n      swap1\n      sstore\n      pop\n      swap1\n      pop\n      pop\n        /* \"contracts/Donation.sol\":773:1013  if (!donors[msg.sender].exists) {... */\n      jump(tag_37)\n    tag_36:\n        /* \"contracts/Donation.sol\":992:1001  msg.value */\n      callvalue\n        /* \"contracts/Donation.sol\":963:969  donors */\n      0x00\n        /* \"contracts/Donation.sol\":963:981  donors[msg.sender] */\n      dup1\n        /* \"contracts/Donation.sol\":970:980  msg.sender */\n      caller\n        /* \"contracts/Donation.sol\":963:981  donors[msg.sender] */\n      0xffffffffffffffffffffffffffffffffffffffff\n      and\n      0xffffffffffffffffffffffffffffffffffffffff\n      and\n      dup2\n      mstore\n      0x20\n      add\n      swap1\n      dup2\n      mstore\n      0x20\n      add\n      0x00\n      keccak256\n        /* \"contracts/Donation.sol\":963:988  donors[msg.sender].amount */\n      0x00\n      add\n      0x00\n        /* \"contracts/Donation.sol\":963:1001  donors[msg.sender].amount += msg.value */\n      dup3\n      dup3\n      sload\n      tag_38\n      swap2\n      swap1\n      tag_39\n      jump\t// in\n    tag_38:\n      swap3\n      pop\n      pop\n      dup2\n      swap1\n      sstore\n      pop\n        /* \"contracts/Donation.sol\":773:1013  if (!donors[msg.sender].exists) {... */\n    tag_37:\n        /* \"contracts/Donation.sol\":1043:1052  msg.value */\n      callvalue\n        /* \"contracts/Donation.sol\":1025:1039  totalDonations */\n      0x01\n      0x00\n        /* \"contracts/Donation.sol\":1025:1052  totalDonations += msg.value */\n      dup3\n      dup3\n      sload\n      tag_40\n      swap2\n      swap1\n      tag_39\n      jump\t// in\n    tag_40:\n      swap3\n      pop\n      pop\n      dup2\n      swap1\n      sstore\n      pop\n        /* \"contracts/Donation.sol\":1087:1097  msg.sender */\n      caller\n        /* \"contracts/Donation.sol\":1070:1109  DonationReceived(msg.sender, msg.value) */\n      0xffffffffffffffffffffffffffffffffffffffff\n      and\n      0x264f630d9efa0d07053a31163641d9fcc0adafc9d9e76f1c37c2ce3a558d2c52\n        /* \"contracts/Donation.sol\":1099:1108  msg.value */\n      callvalue\n        /* \"contracts/Donation.sol\":1070:1109  DonationReceived(msg.sender, msg.value) */\n      mload(0x40)\n      tag_41\n      swap2\n      swap1\n      tag_11\n      jump\t// in\n    tag_41:\n      mload(0x40)\n      dup1\n      swap2\n      sub\n      swap1\n      log2\n        /* \"contracts/Donation.sol\":583:1117  function donate() external payable {... */\n      jump\t// out\n        /* \"#utility.yul\":7:84   */\n    tag_42:\n        /* \"#utility.yul\":44:51   */\n      0x00\n        /* \"#utility.yul\":73:78   */\n      dup2\n        /* \"#utility.yul\":62:78   */\n      swap1\n      pop\n        /* \"#utility.yul\":7:84   */\n      swap2\n      swap1\n      pop\n      jump\t// out\n        /* \"#utility.yul\":90:208   */\n    tag_43:\n        /* \"#utility.yul\":177:201   */\n      tag_60\n        /* \"#utility.yul\":195:200   */\n      dup2\n        /* \"#utility.yul\":177:201   */\n      tag_42\n      jump\t// in\n    tag_60:\n        /* \"#utility.yul\":172:175   */\n      dup3\n        /* \"#utility.yul\":165:202   */\n      mstore\n        /* \"#utility.yul\":90:208   */\n      pop\n      pop\n      jump\t// out\n        /* \"#utility.yul\":214:436   */\n    tag_11:\n        /* \"#utility.yul\":307:311   */\n      0x00\n        /* \"#utility.yul\":345:347   */\n      0x20\n        /* \"#utility.yul\":334:343   */\n      dup3\n        /* \"#utility.yul\":330:348   */\n      add\n        /* \"#utility.yul\":322:348   */\n      swap1\n      pop\n        /* \"#utility.yul\":358:429   */\n      tag_62\n        /* \"#utility.yul\":426:427   */\n      0x00\n        /* \"#utility.yul\":415:424   */\n      dup4\n        /* \"#utility.yul\":411:428   */\n      add\n        /* \"#utility.yul\":402:408   */\n      dup5\n        /* \"#utility.yul\":358:429   */\n      tag_43\n      jump\t// in\n    tag_62:\n        /* \"#utility.yul\":214:436   */\n      swap3\n      swap2\n      pop\n      pop\n      jump\t// out\n        /* \"#utility.yul\":523:640   */\n    tag_45:\n        /* \"#utility.yul\":632:633   */\n      0x00\n        /* \"#utility.yul\":629:630   */\n      dup1\n        /* \"#utility.yul\":622:634   */\n      revert\n        /* \"#utility.yul\":769:895   */\n    tag_47:\n        /* \"#utility.yul\":806:813   */\n      0x00\n        /* \"#utility.yul\":846:888   */\n      0xffffffffffffffffffffffffffffffffffffffff\n        /* \"#utility.yul\":839:844   */\n      dup3\n        /* \"#utility.yul\":835:889   */\n      and\n        /* \"#utility.yul\":824:889   */\n      swap1\n      pop\n        /* \"#utility.yul\":769:895   */\n      swap2\n      swap1\n      pop\n      jump\t// out\n        /* \"#utility.yul\":901:997   */\n    tag_48:\n        /* \"#utility.yul\":938:945   */\n      0x00\n        /* \"#utility.yul\":967:991   */\n      tag_68\n        /* \"#utility.yul\":985:990   */\n      dup3\n        /* \"#utility.yul\":967:991   */\n      tag_47\n      jump\t// in\n    tag_68:\n        /* \"#utility.yul\":956:991   */\n      swap1\n      pop\n        /* \"#utility.yul\":901:997   */\n      swap2\n      swap1\n      pop\n      jump\t// out\n        /* \"#utility.yul\":1003:1125   */\n    tag_49:\n        /* \"#utility.yul\":1076:1100   */\n      tag_70\n        /* \"#utility.yul\":1094:1099   */\n      dup2\n        /* \"#utility.yul\":1076:1100   */\n      tag_48\n      jump\t// in\n    tag_70:\n        /* \"#utility.yul\":1069:1074   */\n      dup2\n        /* \"#utility.yul\":1066:1101   */\n      eq\n        /* \"#utility.yul\":1056:1119   */\n      tag_71\n      jumpi\n        /* \"#utility.yul\":1115:1116   */\n      0x00\n        /* \"#utility.yul\":1112:1113   */\n      dup1\n        /* \"#utility.yul\":1105:1117   */\n      revert\n        /* \"#utility.yul\":1056:1119   */\n    tag_71:\n        /* \"#utility.yul\":1003:1125   */\n      pop\n      jump\t// out\n        /* \"#utility.yul\":1131:1270   */\n    tag_50:\n        /* \"#utility.yul\":1177:1182   */\n      0x00\n        /* \"#utility.yul\":1215:1221   */\n      dup2\n        /* \"#utility.yul\":1202:1222   */\n      calldataload\n        /* \"#utility.yul\":1193:1222   */\n      swap1\n      pop\n        /* \"#utility.yul\":1231:1264   */\n      tag_73\n        /* \"#utility.yul\":1258:1263   */\n      dup2\n        /* \"#utility.yul\":1231:1264   */\n      tag_49\n      jump\t// in\n    tag_73:\n        /* \"#utility.yul\":1131:1270   */\n      swap3\n      swap2\n      pop\n      pop\n      jump\t// out\n        /* \"#utility.yul\":1276:1605   */\n    tag_15:\n        /* \"#utility.yul\":1335:1341   */\n      0x00\n        /* \"#utility.yul\":1384:1386   */\n      0x20\n        /* \"#utility.yul\":1372:1381   */\n      dup3\n        /* \"#utility.yul\":1363:1370   */\n      dup5\n        /* \"#utility.yul\":1359:1382   */\n      sub\n        /* \"#utility.yul\":1355:1387   */\n      slt\n        /* \"#utility.yul\":1352:1471   */\n      iszero\n      tag_75\n      jumpi\n        /* \"#utility.yul\":1390:1469   */\n      tag_76\n      tag_45\n      jump\t// in\n    tag_76:\n        /* \"#utility.yul\":1352:1471   */\n    tag_75:\n        /* \"#utility.yul\":1510:1511   */\n      0x00\n        /* \"#utility.yul\":1535:1588   */\n      tag_77\n        /* \"#utility.yul\":1580:1587   */\n      dup5\n        /* \"#utility.yul\":1571:1577   */\n      dup3\n        /* \"#utility.yul\":1560:1569   */\n      dup6\n        /* \"#utility.yul\":1556:1578   */\n      add\n        /* \"#utility.yul\":1535:1588   */\n      tag_50\n      jump\t// in\n    tag_77:\n        /* \"#utility.yul\":1525:1588   */\n      swap2\n      pop\n        /* \"#utility.yul\":1481:1598   */\n      pop\n        /* \"#utility.yul\":1276:1605   */\n      swap3\n      swap2\n      pop\n      pop\n      jump\t// out\n        /* \"#utility.yul\":1611:1701   */\n    tag_51:\n        /* \"#utility.yul\":1645:1652   */\n      0x00\n        /* \"#utility.yul\":1688:1693   */\n      dup2\n        /* \"#utility.yul\":1681:1694   */\n      iszero\n        /* \"#utility.yul\":1674:1695   */\n      iszero\n        /* \"#utility.yul\":1663:1695   */\n      swap1\n      pop\n        /* \"#utility.yul\":1611:1701   */\n      swap2\n      swap1\n      pop\n      jump\t// out\n        /* \"#utility.yul\":1707:1816   */\n    tag_52:\n        /* \"#utility.yul\":1788:1809   */\n      tag_80\n        /* \"#utility.yul\":1803:1808   */\n      dup2\n        /* \"#utility.yul\":1788:1809   */\n      tag_51\n      jump\t// in\n    tag_80:\n        /* \"#utility.yul\":1783:1786   */\n      dup3\n        /* \"#utility.yul\":1776:1810   */\n      mstore\n        /* \"#utility.yul\":1707:1816   */\n      pop\n      pop\n      jump\t// out\n        /* \"#utility.yul\":1822:2142   */\n    tag_23:\n        /* \"#utility.yul\":1937:1941   */\n      0x00\n        /* \"#utility.yul\":1975:1977   */\n      0x40\n        /* \"#utility.yul\":1964:1973   */\n      dup3\n        /* \"#utility.yul\":1960:1978   */\n      add\n        /* \"#utility.yul\":1952:1978   */\n      swap1\n      pop\n        /* \"#utility.yul\":1988:2059   */\n      tag_82\n        /* \"#utility.yul\":2056:2057   */\n      0x00\n        /* \"#utility.yul\":2045:2054   */\n      dup4\n        /* \"#utility.yul\":2041:2058   */\n      add\n        /* \"#utility.yul\":2032:2038   */\n      dup6\n        /* \"#utility.yul\":1988:2059   */\n      tag_43\n      jump\t// in\n    tag_82:\n        /* \"#utility.yul\":2069:2135   */\n      tag_83\n        /* \"#utility.yul\":2131:2133   */\n      0x20\n        /* \"#utility.yul\":2120:2129   */\n      dup4\n        /* \"#utility.yul\":2116:2134   */\n      add\n        /* \"#utility.yul\":2107:2113   */\n      dup5\n        /* \"#utility.yul\":2069:2135   */\n      tag_52\n      jump\t// in\n    tag_83:\n        /* \"#utility.yul\":1822:2142   */\n      swap4\n      swap3\n      pop\n      pop\n      pop\n      jump\t// out\n        /* \"#utility.yul\":2148:2317   */\n    tag_53:\n        /* \"#utility.yul\":2232:2243   */\n      0x00\n        /* \"#utility.yul\":2266:2272   */\n      dup3\n        /* \"#utility.yul\":2261:2264   */\n      dup3\n        /* \"#utility.yul\":2254:2273   */\n      mstore\n        /* \"#utility.yul\":2306:2310   */\n      0x20\n        /* \"#utility.yul\":2301:2304   */\n      dup3\n        /* \"#utility.yul\":2297:2311   */\n      add\n        /* \"#utility.yul\":2282:2311   */\n      swap1\n      pop\n        /* \"#utility.yul\":2148:2317   */\n      swap3\n      swap2\n      pop\n      pop\n      jump\t// out\n        /* \"#utility.yul\":2323:2502   */\n    tag_54:\n        /* \"#utility.yul\":2463:2494   */\n      0x416d6f756e74206d7573742062652067726561746572207468616e2030000000\n        /* \"#utility.yul\":2459:2460   */\n      0x00\n        /* \"#utility.yul\":2451:2457   */\n      dup3\n        /* \"#utility.yul\":2447:2461   */\n      add\n        /* \"#utility.yul\":2440:2495   */\n      mstore\n        /* \"#utility.yul\":2323:2502   */\n      pop\n      jump\t// out\n        /* \"#utility.yul\":2508:2874   */\n    tag_55:\n        /* \"#utility.yul\":2650:2653   */\n      0x00\n        /* \"#utility.yul\":2671:2738   */\n      tag_87\n        /* \"#utility.yul\":2735:2737   */\n      0x1d\n        /* \"#utility.yul\":2730:2733   */\n      dup4\n        /* \"#utility.yul\":2671:2738   */\n      tag_53\n      jump\t// in\n    tag_87:\n        /* \"#utility.yul\":2664:2738   */\n      swap2\n      pop\n        /* \"#utility.yul\":2747:2840   */\n      tag_88\n        /* \"#utility.yul\":2836:2839   */\n      dup3\n        /* \"#utility.yul\":2747:2840   */\n      tag_54\n      jump\t// in\n    tag_88:\n        /* \"#utility.yul\":2865:2867   */\n      0x20\n        /* \"#utility.yul\":2860:2863   */\n      dup3\n        /* \"#utility.yul\":2856:2868   */\n      add\n        /* \"#utility.yul\":2849:2868   */\n      swap1\n      pop\n        /* \"#utility.yul\":2508:2874   */\n      swap2\n      swap1\n      pop\n      jump\t// out\n        /* \"#utility.yul\":2880:3299   */\n    tag_35:\n        /* \"#utility.yul\":3046:3050   */\n      0x00\n        /* \"#utility.yul\":3084:3086   */\n      0x20\n        /* \"#utility.yul\":3073:3082   */\n      dup3\n        /* \"#utility.yul\":3069:3087   */\n      add\n        /* \"#utility.yul\":3061:3087   */\n      swap1\n      pop\n        /* \"#utility.yul\":3133:3142   */\n      dup2\n        /* \"#utility.yul\":3127:3131   */\n      dup2\n        /* \"#utility.yul\":3123:3143   */\n      sub\n        /* \"#utility.yul\":3119:3120   */\n      0x00\n        /* \"#utility.yul\":3108:3117   */\n      dup4\n        /* \"#utility.yul\":3104:3121   */\n      add\n        /* \"#utility.yul\":3097:3144   */\n      mstore\n        /* \"#utility.yul\":3161:3292   */\n      tag_90\n        /* \"#utility.yul\":3287:3291   */\n      dup2\n        /* \"#utility.yul\":3161:3292   */\n      tag_55\n      jump\t// in\n    tag_90:\n        /* \"#utility.yul\":3153:3292   */\n      swap1\n      pop\n        /* \"#utility.yul\":2880:3299   */\n      swap2\n      swap1\n      pop\n      jump\t// out\n        /* \"#utility.yul\":3305:3485   */\n    tag_56:\n        /* \"#utility.yul\":3353:3430   */\n      0x4e487b7100000000000000000000000000000000000000000000000000000000\n        /* \"#utility.yul\":3350:3351   */\n      0x00\n        /* \"#utility.yul\":3343:3431   */\n      mstore\n        /* \"#utility.yul\":3450:3454   */\n      0x11\n        /* \"#utility.yul\":3447:3448   */\n      0x04\n        /* \"#utility.yul\":3440:3455   */\n      mstore\n        /* \"#utility.yul\":3474:3478   */\n      0x24\n        /* \"#utility.yul\":3471:3472   */\n      0x00\n        /* \"#utility.yul\":3464:3479   */\n      revert\n        /* \"#utility.yul\":3491:3682   */\n    tag_39:\n        /* \"#utility.yul\":3531:3534   */\n      0x00\n        /* \"#utility.yul\":3550:3570   */\n      tag_93\n        /* \"#utility.yul\":3568:3569   */\n      dup3\n        /* \"#utility.yul\":3550:3570   */\n      tag_42\n      jump\t// in\n    tag_93:\n        /* \"#utility.yul\":3545:3570   */\n      swap2\n      pop\n        /* \"#utility.yul\":3584:3604   */\n      tag_94\n        /* \"#utility.yul\":3602:3603   */\n      dup4\n        /* \"#utility.yul\":3584:3604   */\n      tag_42\n      jump\t// in\n    tag_94:\n        /* \"#utility.yul\":3579:3604   */\n      swap3\n      pop\n        /* \"#utility.yul\":3627:3628   */\n      dup3\n        /* \"#utility.yul\":3624:3625   */\n      dup3\n        /* \"#utility.yul\":3620:3629   */\n      add\n        /* \"#utility.yul\":3613:3629   */\n      swap1\n      pop\n        /* \"#utility.yul\":3648:3651   */\n      dup1\n        /* \"#utility.yul\":3645:3646   */\n      dup3\n        /* \"#utility.yul\":3642:3652   */\n      gt\n        /* \"#utility.yul\":3639:3675   */\n      iszero\n      tag_95\n      jumpi\n        /* \"#utility.yul\":3655:3673   */\n      tag_96\n      tag_56\n      jump\t// in\n    tag_96:\n        /* \"#utility.yul\":3639:3675   */\n    tag_95:\n        /* \"#utility.yul\":3491:3682   */\n      swap3\n      swap2\n      pop\n      pop\n      jump\t// out\n\n    auxdata: 0xa2646970667358221220f5b6f5142583bc9b274ac4d04d72eed3593b96e01fcf11cb89d03066862ea9fa64736f6c63430008150033\n}\n",
				"bytecode": {
					"linkReferences": {},
					"object": "608060405234801561000f575f80fd5b506105808061001d5f395ff3fe608060405260043610610049575f3560e01c8063777c658f1461004d57806394b9eac514610077578063ca0cdea8146100b3578063de2ed893146100f0578063ed88c68e1461011a575b5f80fd5b348015610058575f80fd5b50610061610124565b60405161006e919061038f565b60405180910390f35b348015610082575f80fd5b5061009d60048036038101906100989190610406565b61012d565b6040516100aa919061038f565b60405180910390f35b3480156100be575f80fd5b506100d960048036038101906100d49190610406565b610174565b6040516100e792919061044b565b60405180910390f35b3480156100fb575f80fd5b5061010461019f565b604051610111919061038f565b60405180910390f35b6101226101a5565b005b5f600154905090565b5f805f8373ffffffffffffffffffffffffffffffffffffffff1673ffffffffffffffffffffffffffffffffffffffff1681526020019081526020015f205f01549050919050565b5f602052805f5260405f205f91509050805f015490806001015f9054906101000a900460ff16905082565b60015481565b5f34116101e7576040517f08c379a00000000000000000000000000000000000000000000000000000000081526004016101de906104cc565b60405180910390fd5b5f803373ffffffffffffffffffffffffffffffffffffffff1673ffffffffffffffffffffffffffffffffffffffff1681526020019081526020015f206001015f9054906101000a900460ff166102ba576040518060400160405280348152602001600115158152505f803373ffffffffffffffffffffffffffffffffffffffff1673ffffffffffffffffffffffffffffffffffffffff1681526020019081526020015f205f820151815f01556020820151816001015f6101000a81548160ff02191690831515021790555090505061030f565b345f803373ffffffffffffffffffffffffffffffffffffffff1673ffffffffffffffffffffffffffffffffffffffff1681526020019081526020015f205f015f8282546103079190610517565b925050819055505b3460015f8282546103209190610517565b925050819055503373ffffffffffffffffffffffffffffffffffffffff167f264f630d9efa0d07053a31163641d9fcc0adafc9d9e76f1c37c2ce3a558d2c523460405161036d919061038f565b60405180910390a2565b5f819050919050565b61038981610377565b82525050565b5f6020820190506103a25f830184610380565b92915050565b5f80fd5b5f73ffffffffffffffffffffffffffffffffffffffff82169050919050565b5f6103d5826103ac565b9050919050565b6103e5816103cb565b81146103ef575f80fd5b50565b5f81359050610400816103dc565b92915050565b5f6020828403121561041b5761041a6103a8565b5b5f610428848285016103f2565b91505092915050565b5f8115159050919050565b61044581610431565b82525050565b5f60408201905061045e5f830185610380565b61046b602083018461043c565b9392505050565b5f82825260208201905092915050565b7f416d6f756e74206d7573742062652067726561746572207468616e20300000005f82015250565b5f6104b6601d83610472565b91506104c182610482565b602082019050919050565b5f6020820190508181035f8301526104e3816104aa565b9050919050565b7f4e487b71000000000000000000000000000000000000000000000000000000005f52601160045260245ffd5b5f61052182610377565b915061052c83610377565b9250828201905080821115610544576105436104ea565b5b9291505056fea2646970667358221220f5b6f5142583bc9b274ac4d04d72eed3593b96e01fcf11cb89d03066862ea9fa64736f6c63430008150033",
					"opcodes": "PUSH1 0x80 PUSH1 0x40 MSTORE CALLVALUE DUP1 ISZERO PUSH2 0xF JUMPI PUSH0 DUP1 REVERT JUMPDEST POP PUSH2 0x580 DUP1 PUSH2 0x1D PUSH0 CODECOPY PUSH0 RETURN INVALID PUSH1 0x80 PUSH1 0x40 MSTORE PUSH1 0x4 CALLDATASIZE LT PUSH2 0x49 JUMPI PUSH0 CALLDATALOAD PUSH1 0xE0 SHR DUP1 PUSH4 0x777C658F EQ PUSH2 0x4D JUMPI DUP1 PUSH4 0x94B9EAC5 EQ PUSH2 0x77 JUMPI DUP1 PUSH4 0xCA0CDEA8 EQ PUSH2 0xB3 JUMPI DUP1 PUSH4 0xDE2ED893 EQ PUSH2 0xF0 JUMPI DUP1 PUSH4 0xED88C68E EQ PUSH2 0x11A JUMPI JUMPDEST PUSH0 DUP1 REVERT JUMPDEST CALLVALUE DUP1 ISZERO PUSH2 0x58 JUMPI PUSH0 DUP1 REVERT JUMPDEST POP PUSH2 0x61 PUSH2 0x124 JUMP JUMPDEST PUSH1 0x40 MLOAD PUSH2 0x6E SWAP2 SWAP1 PUSH2 0x38F JUMP JUMPDEST PUSH1 0x40 MLOAD DUP1 SWAP2 SUB SWAP1 RETURN JUMPDEST CALLVALUE DUP1 ISZERO PUSH2 0x82 JUMPI PUSH0 DUP1 REVERT JUMPDEST POP PUSH2 0x9D PUSH1 0x4 DUP1 CALLDATASIZE SUB DUP2 ADD SWAP1 PUSH2 0x98 SWAP2 SWAP1 PUSH2 0x406 JUMP JUMPDEST PUSH2 0x12D JUMP JUMPDEST PUSH1 0x40 MLOAD PUSH2 0xAA SWAP2 SWAP1 PUSH2 0x38F JUMP JUMPDEST PUSH1 0x40 MLOAD DUP1 SWAP2 SUB SWAP1 RETURN JUMPDEST CALLVALUE DUP1 ISZERO PUSH2 0xBE JUMPI PUSH0 DUP1 REVERT JUMPDEST POP PUSH2 0xD9 PUSH1 0x4 DUP1 CALLDATASIZE SUB DUP2 ADD SWAP1 PUSH2 0xD4 SWAP2 SWAP1 PUSH2 0x406 JUMP JUMPDEST PUSH2 0x174 JUMP JUMPDEST PUSH1 0x40 MLOAD PUSH2 0xE7 SWAP3 SWAP2 SWAP1 PUSH2 0x44B JUMP JUMPDEST PUSH1 0x40 MLOAD DUP1 SWAP2 SUB SWAP1 RETURN JUMPDEST CALLVALUE DUP1 ISZERO PUSH2 0xFB JUMPI PUSH0 DUP1 REVERT JUMPDEST POP PUSH2 0x104 PUSH2 0x19F JUMP JUMPDEST PUSH1 0x40 MLOAD PUSH2 0x111 SWAP2 SWAP1 PUSH2 0x38F JUMP JUMPDEST PUSH1 0x40 MLOAD DUP1 SWAP2 SUB SWAP1 RETURN JUMPDEST PUSH2 0x122 PUSH2 0x1A5 JUMP JUMPDEST STOP JUMPDEST PUSH0 PUSH1 0x1 SLOAD SWAP1 POP SWAP1 JUMP JUMPDEST PUSH0 DUP1 PUSH0 DUP4 PUSH20 0xFFFFFFFFFFFFFFFFFFFFFFFFFFFFFFFFFFFFFFFF AND PUSH20 0xFFFFFFFFFFFFFFFFFFFFFFFFFFFFFFFFFFFFFFFF AND DUP2 MSTORE PUSH1 0x20 ADD SWAP1 DUP2 MSTORE PUSH1 0x20 ADD PUSH0 KECCAK256 PUSH0 ADD SLOAD SWAP1 POP SWAP2 SWAP1 POP JUMP JUMPDEST PUSH0 PUSH1 0x20 MSTORE DUP1 PUSH0 MSTORE PUSH1 0x40 PUSH0 KECCAK256 PUSH0 SWAP2 POP SWAP1 POP DUP1 PUSH0 ADD SLOAD SWAP1 DUP1 PUSH1 0x1 ADD PUSH0 SWAP1 SLOAD SWAP1 PUSH2 0x100 EXP SWAP1 DIV PUSH1 0xFF AND SWAP1 POP DUP3 JUMP JUMPDEST PUSH1 0x1 SLOAD DUP2 JUMP JUMPDEST PUSH0 CALLVALUE GT PUSH2 0x1E7 JUMPI PUSH1 0x40 MLOAD PUSH32 0x8C379A000000000000000000000000000000000000000000000000000000000 DUP2 MSTORE PUSH1 0x4 ADD PUSH2 0x1DE SWAP1 PUSH2 0x4CC JUMP JUMPDEST PUSH1 0x40 MLOAD DUP1 SWAP2 SUB SWAP1 REVERT JUMPDEST PUSH0 DUP1 CALLER PUSH20 0xFFFFFFFFFFFFFFFFFFFFFFFFFFFFFFFFFFFFFFFF AND PUSH20 0xFFFFFFFFFFFFFFFFFFFFFFFFFFFFFFFFFFFFFFFF AND DUP2 MSTORE PUSH1 0x20 ADD SWAP1 DUP2 MSTORE PUSH1 0x20 ADD PUSH0 KECCAK256 PUSH1 0x1 ADD PUSH0 SWAP1 SLOAD SWAP1 PUSH2 0x100 EXP SWAP1 DIV PUSH1 0xFF AND PUSH2 0x2BA JUMPI PUSH1 0x40 MLOAD DUP1 PUSH1 0x40 ADD PUSH1 0x40 MSTORE DUP1 CALLVALUE DUP2 MSTORE PUSH1 0x20 ADD PUSH1 0x1 ISZERO ISZERO DUP2 MSTORE POP PUSH0 DUP1 CALLER PUSH20 0xFFFFFFFFFFFFFFFFFFFFFFFFFFFFFFFFFFFFFFFF AND PUSH20 0xFFFFFFFFFFFFFFFFFFFFFFFFFFFFFFFFFFFFFFFF AND DUP2 MSTORE PUSH1 0x20 ADD SWAP1 DUP2 MSTORE PUSH1 0x20 ADD PUSH0 KECCAK256 PUSH0 DUP3 ADD MLOAD DUP2 PUSH0 ADD SSTORE PUSH1 0x20 DUP3 ADD MLOAD DUP2 PUSH1 0x1 ADD PUSH0 PUSH2 0x100 EXP DUP2 SLOAD DUP2 PUSH1 0xFF MUL NOT AND SWAP1 DUP4 ISZERO ISZERO MUL OR SWAP1 SSTORE POP SWAP1 POP POP PUSH2 0x30F JUMP JUMPDEST CALLVALUE PUSH0 DUP1 CALLER PUSH20 0xFFFFFFFFFFFFFFFFFFFFFFFFFFFFFFFFFFFFFFFF AND PUSH20 0xFFFFFFFFFFFFFFFFFFFFFFFFFFFFFFFFFFFFFFFF AND DUP2 MSTORE PUSH1 0x20 ADD SWAP1 DUP2 MSTORE PUSH1 0x20 ADD PUSH0 KECCAK256 PUSH0 ADD PUSH0 DUP3 DUP3 SLOAD PUSH2 0x307 SWAP2 SWAP1 PUSH2 0x517 JUMP JUMPDEST SWAP3 POP POP DUP2 SWAP1 SSTORE POP JUMPDEST CALLVALUE PUSH1 0x1 PUSH0 DUP3 DUP3 SLOAD PUSH2 0x320 SWAP2 SWAP1 PUSH2 0x517 JUMP JUMPDEST SWAP3 POP POP DUP2 SWAP1 SSTORE POP CALLER PUSH20 0xFFFFFFFFFFFFFFFFFFFFFFFFFFFFFFFFFFFFFFFF AND PUSH32 0x264F630D9EFA0D07053A31163641D9FCC0ADAFC9D9E76F1C37C2CE3A558D2C52 CALLVALUE PUSH1 0x40 MLOAD PUSH2 0x36D SWAP2 SWAP1 PUSH2 0x38F JUMP JUMPDEST PUSH1 0x40 MLOAD DUP1 SWAP2 SUB SWAP1 LOG2 JUMP JUMPDEST PUSH0 DUP2 SWAP1 POP SWAP2 SWAP1 POP JUMP JUMPDEST PUSH2 0x389 DUP2 PUSH2 0x377 JUMP JUMPDEST DUP3 MSTORE POP POP JUMP JUMPDEST PUSH0 PUSH1 0x20 DUP3 ADD SWAP1 POP PUSH2 0x3A2 PUSH0 DUP4 ADD DUP5 PUSH2 0x380 JUMP JUMPDEST SWAP3 SWAP2 POP POP JUMP JUMPDEST PUSH0 DUP1 REVERT JUMPDEST PUSH0 PUSH20 0xFFFFFFFFFFFFFFFFFFFFFFFFFFFFFFFFFFFFFFFF DUP3 AND SWAP1 POP SWAP2 SWAP1 POP JUMP JUMPDEST PUSH0 PUSH2 0x3D5 DUP3 PUSH2 0x3AC JUMP JUMPDEST SWAP1 POP SWAP2 SWAP1 POP JUMP JUMPDEST PUSH2 0x3E5 DUP2 PUSH2 0x3CB JUMP JUMPDEST DUP2 EQ PUSH2 0x3EF JUMPI PUSH0 DUP1 REVERT JUMPDEST POP JUMP JUMPDEST PUSH0 DUP2 CALLDATALOAD SWAP1 POP PUSH2 0x400 DUP2 PUSH2 0x3DC JUMP JUMPDEST SWAP3 SWAP2 POP POP JUMP JUMPDEST PUSH0 PUSH1 0x20 DUP3 DUP5 SUB SLT ISZERO PUSH2 0x41B JUMPI PUSH2 0x41A PUSH2 0x3A8 JUMP JUMPDEST JUMPDEST PUSH0 PUSH2 0x428 DUP5 DUP3 DUP6 ADD PUSH2 0x3F2 JUMP JUMPDEST SWAP2 POP POP SWAP3 SWAP2 POP POP JUMP JUMPDEST PUSH0 DUP2 ISZERO ISZERO SWAP1 POP SWAP2 SWAP1 POP JUMP JUMPDEST PUSH2 0x445 DUP2 PUSH2 0x431 JUMP JUMPDEST DUP3 MSTORE POP POP JUMP JUMPDEST PUSH0 PUSH1 0x40 DUP3 ADD SWAP1 POP PUSH2 0x45E PUSH0 DUP4 ADD DUP6 PUSH2 0x380 JUMP JUMPDEST PUSH2 0x46B PUSH1 0x20 DUP4 ADD DUP5 PUSH2 0x43C JUMP JUMPDEST SWAP4 SWAP3 POP POP POP JUMP JUMPDEST PUSH0 DUP3 DUP3 MSTORE PUSH1 0x20 DUP3 ADD SWAP1 POP SWAP3 SWAP2 POP POP JUMP JUMPDEST PUSH32 0x416D6F756E74206D7573742062652067726561746572207468616E2030000000 PUSH0 DUP3 ADD MSTORE POP JUMP JUMPDEST PUSH0 PUSH2 0x4B6 PUSH1 0x1D DUP4 PUSH2 0x472 JUMP JUMPDEST SWAP2 POP PUSH2 0x4C1 DUP3 PUSH2 0x482 JUMP JUMPDEST PUSH1 0x20 DUP3 ADD SWAP1 POP SWAP2 SWAP1 POP JUMP JUMPDEST PUSH0 PUSH1 0x20 DUP3 ADD SWAP1 POP DUP2 DUP2 SUB PUSH0 DUP4 ADD MSTORE PUSH2 0x4E3 DUP2 PUSH2 0x4AA JUMP JUMPDEST SWAP1 POP SWAP2 SWAP1 POP JUMP JUMPDEST PUSH32 0x4E487B7100000000000000000000000000000000000000000000000000000000 PUSH0 MSTORE PUSH1 0x11 PUSH1 0x4 MSTORE PUSH1 0x24 PUSH0 REVERT JUMPDEST PUSH0 PUSH2 0x521 DUP3 PUSH2 0x377 JUMP JUMPDEST SWAP2 POP PUSH2 0x52C DUP4 PUSH2 0x377 JUMP JUMPDEST SWAP3 POP DUP3 DUP3 ADD SWAP1 POP DUP1 DUP3 GT ISZERO PUSH2 0x544 JUMPI PUSH2 0x543 PUSH2 0x4EA JUMP JUMPDEST JUMPDEST SWAP3 SWAP2 POP POP JUMP INVALID LOG2 PUSH5 0x6970667358 0x22 SLT KECCAK256 CREATE2 0xB6 CREATE2 EQ 0x25 DUP4 0xBC SWAP12 0x27 0x4A 0xC4 0xD0 0x4D PUSH19 0xEED3593B96E01FCF11CB89D03066862EA9FA64 PUSH20 0x6F6C634300081500330000000000000000000000 "
				},
				"gasEstimates": {
					"creation": {
						"codeDepositCost": "281600",
						"executionCost": "316",
						"totalCost": "281916"
					},
					"external": {
						"donate()": "infinite",
						"donors(address)": "5088",
						"getDonorAmount(address)": "2834",
						"getTotalDonations()": "2410",
						"totalDonations()": "2469"
					}
				},
				"methodIdentifiers": {
					"donate()": "ed88c68e",
					"donors(address)": "ca0cdea8",
					"getDonorAmount(address)": "94b9eac5",
					"getTotalDonations()": "777c658f",
					"totalDonations()": "de2ed893"
				}
			},
			"storageLayout": {
				"storage": [
					{
						"astId": 11,
						"contract": "contracts/Donation.sol:DonationContract",
						"label": "donors",
						"offset": 0,
						"slot": "0",
						"type": "t_mapping(t_address,t_struct(Donor)6_storage)"
					},
					{
						"astId": 13,
						"contract": "contracts/Donation.sol:DonationContract",
						"label": "totalDonations",
						"offset": 0,
						"slot": "1",
						"type": "t_uint256"
					}
				],
				"types": {
					"t_address": {
						"encoding": "inplace",
						"label": "address",
						"numberOfBytes": "20"
					},
					"t_bool": {
						"encoding": "inplace",
						"label": "bool",
						"numberOfBytes": "1"
					},
					"t_mapping(t_address,t_struct(Donor)6_storage)": {
						"encoding": "mapping",
						"key": "t_address",
						"label": "mapping(address => struct DonationContract.Donor)",
						"numberOfBytes": "32",
						"value": "t_struct(Donor)6_storage"
					},
					"t_struct(Donor)6_storage": {
						"encoding": "inplace",
						"label": "struct DonationContract.Donor",
						"members": [
							{
								"astId": 3,
								"contract": "contracts/Donation.sol:DonationContract",
								"label": "amount",
								"offset": 0,
								"slot": "0",
								"type": "t_uint256"
							},
							{
								"astId": 5,
								"contract": "contracts/Donation.sol:DonationContract",
								"label": "exists",
								"offset": 0,
								"slot": "1",
								"type": "t_bool"
							}
						],
						"numberOfBytes": "64"
					},
					"t_uint256": {
						"encoding": "inplace",
						"label": "uint256",
						"numberOfBytes": "32"
					}
				}
			},
			"userdoc": {
				"kind": "user",
				"methods": {},
				"version": 1
			}
		}
	}
}