{
	"data": {
		"bytecode": {
			"linkReferences": {},
			"object": "608060405234801561000f575f80fd5b5061273d8061001d5f395ff3fe608060405234801562000010575f80fd5b506004361062000038575f3560e01c80635b060530146200003c578063e4860339146200005c575b5f80fd5b6200005a6004803603810190620000549190620005d5565b62000095565b005b6200007a6004803603810190620000749190620006cd565b620002c0565b6040516200008c9493929190620007a3565b60405180910390f35b5f8351118015620000a657505f8251115b620000e8576040517f08c379a0000000000000000000000000000000000000000000000000000000008152600401620000df906200084a565b60405180910390fd5b5f81116200012d576040517f08c379a00000000000000000000000000000000000000000000000000000000081526004016200012490620008de565b60405180910390fd5b5f83833384604051620001409062000426565b6200014f9493929190620008fe565b604051809103905ff08015801562000169573d5f803e3d5ffd5b50905060405180608001604052808581526020018481526020018381526020013373ffffffffffffffffffffffffffffffffffffffff168152505f808373ffffffffffffffffffffffffffffffffffffffff1673ffffffffffffffffffffffffffffffffffffffff1681526020019081526020015f205f820151815f019081620001f4919062000b7b565b5060208201518160010190816200020c919062000b7b565b50604082015181600201556060820151816003015f6101000a81548173ffffffffffffffffffffffffffffffffffffffff021916908373ffffffffffffffffffffffffffffffffffffffff1602179055509050503373ffffffffffffffffffffffffffffffffffffffff168173ffffffffffffffffffffffffffffffffffffffff167fd5f9bdf12adf29dab0248c349842c3822d53ae2bb4f36352f301630d018c813960405160405180910390a350505050565b5f602052805f5260405f205f91509050805f018054620002e09062000984565b80601f01602080910402602001604051908101604052809291908181526020018280546200030e9062000984565b80156200035d5780601f1062000333576101008083540402835291602001916200035d565b820191905f5260205f20905b8154815290600101906020018083116200033f57829003601f168201915b505050505090806001018054620003749062000984565b80601f0160208091040260200160405190810160405280929190818152602001828054620003a29062000984565b8015620003f15780601f10620003c757610100808354040283529160200191620003f1565b820191905f5260205f20905b815481529060010190602001808311620003d357829003601f168201915b505050505090806002015490806003015f9054906101000a900473ffffffffffffffffffffffffffffffffffffffff16905084565b611aa88062000c6083390190565b5f604051905090565b5f80fd5b5f80fd5b5f80fd5b5f80fd5b5f601f19601f8301169050919050565b7f4e487b71000000000000000000000000000000000000000000000000000000005f52604160045260245ffd5b62000495826200044d565b810181811067ffffffffffffffff82111715620004b757620004b66200045d565b5b80604052505050565b5f620004cb62000434565b9050620004d982826200048a565b919050565b5f67ffffffffffffffff821115620004fb57620004fa6200045d565b5b62000506826200044d565b9050602081019050919050565b828183375f83830152505050565b5f620005376200053184620004de565b620004c0565b90508281526020810184848401111562000556576200055562000449565b5b6200056384828562000513565b509392505050565b5f82601f83011262000582576200058162000445565b5b81356200059484826020860162000521565b91505092915050565b5f819050919050565b620005b1816200059d565b8114620005bc575f80fd5b50565b5f81359050620005cf81620005a6565b92915050565b5f805f60608486031215620005ef57620005ee6200043d565b5b5f84013567ffffffffffffffff8111156200060f576200060e62000441565b5b6200061d868287016200056b565b935050602084013567ffffffffffffffff81111562000641576200064062000441565b5b6200064f868287016200056b565b92505060406200066286828701620005bf565b9150509250925092565b5f73ffffffffffffffffffffffffffffffffffffffff82169050919050565b5f62000697826200066c565b9050919050565b620006a9816200068b565b8114620006b4575f80fd5b50565b5f81359050620006c7816200069e565b92915050565b5f60208284031215620006e557620006e46200043d565b5b5f620006f484828501620006b7565b91505092915050565b5f81519050919050565b5f82825260208201905092915050565b5f5b838110156200073657808201518184015260208101905062000719565b5f8484015250505050565b5f6200074d82620006fd565b62000759818562000707565b93506200076b81856020860162000717565b62000776816200044d565b840191505092915050565b6200078c816200059d565b82525050565b6200079d816200068b565b82525050565b5f6080820190508181035f830152620007bd818762000741565b90508181036020830152620007d3818662000741565b9050620007e4604083018562000781565b620007f3606083018462000792565b95945050505050565b7f4e616d6520616e642073796d626f6c2063616e6e6f7420626520656d707479005f82015250565b5f62000832601f8362000707565b91506200083f82620007fc565b602082019050919050565b5f6020820190508181035f830152620008638162000824565b9050919050565b7f496e697469616c20737570706c79206d757374206265206772656174657220745f8201527f68616e2030000000000000000000000000000000000000000000000000000000602082015250565b5f620008c660258362000707565b9150620008d3826200086a565b604082019050919050565b5f6020820190508181035f830152620008f781620008b8565b9050919050565b5f6080820190508181035f83015262000918818762000741565b905081810360208301526200092e818662000741565b90506200093f604083018562000792565b6200094e606083018462000781565b95945050505050565b7f4e487b71000000000000000000000000000000000000000000000000000000005f52602260045260245ffd5b5f60028204905060018216806200099c57607f821691505b602082108103620009b257620009b162000957565b5b50919050565b5f819050815f5260205f209050919050565b5f6020601f8301049050919050565b5f82821b905092915050565b5f6008830262000a167fffffffffffffffffffffffffffffffffffffffffffffffffffffffffffffffff82620009d9565b62000a228683620009d9565b95508019841693508086168417925050509392505050565b5f819050919050565b5f62000a6362000a5d62000a57846200059d565b62000a3a565b6200059d565b9050919050565b5f819050919050565b62000a7e8362000a43565b62000a9662000a8d8262000a6a565b848454620009e5565b825550505050565b5f90565b62000aac62000a9e565b62000ab981848462000a73565b505050565b5b8181101562000ae05762000ad45f8262000aa2565b60018101905062000abf565b5050565b601f82111562000b2f5762000af981620009b8565b62000b0484620009ca565b8101602085101562000b14578190505b62000b2c62000b2385620009ca565b83018262000abe565b50505b505050565b5f82821c905092915050565b5f62000b515f198460080262000b34565b1980831691505092915050565b5f62000b6b838362000b40565b9150826002028217905092915050565b62000b8682620006fd565b67ffffffffffffffff81111562000ba25762000ba16200045d565b5b62000bae825462000984565b62000bbb82828562000ae4565b5f60209050601f83116001811462000bf1575f841562000bdc578287015190505b62000be8858262000b5e565b86555062000c57565b601f19841662000c0186620009b8565b5f5b8281101562000c2a5784890151825560018201915060208501945060208101905062000c03565b8683101562000c4a578489015162000c46601f89168262000b40565b8355505b6001600288020188555050505b50505050505056fe608060405234801562000010575f80fd5b5060405162001aa838038062001aa8833981810160405281019062000036919062000407565b83838160039081620000499190620006e2565b5080600490816200005b9190620006e2565b5050506200007082826200007a60201b60201c565b50505050620008d7565b5f73ffffffffffffffffffffffffffffffffffffffff168273ffffffffffffffffffffffffffffffffffffffff1603620000eb576040517f08c379a0000000000000000000000000000000000000000000000000000000008152600401620000e29062000824565b60405180910390fd5b620000fe5f8383620001df60201b60201c565b8060025f82825462000111919062000871565b92505081905550805f808473ffffffffffffffffffffffffffffffffffffffff1673ffffffffffffffffffffffffffffffffffffffff1681526020019081526020015f205f82825401925050819055508173ffffffffffffffffffffffffffffffffffffffff165f73ffffffffffffffffffffffffffffffffffffffff167fddf252ad1be2c89b69c2b068fc378daa952ba7f163c4a11628f55a4df523b3ef83604051620001c09190620008bc565b60405180910390a3620001db5f8383620001e460201b60201c565b5050565b505050565b505050565b5f604051905090565b5f80fd5b5f80fd5b5f80fd5b5f80fd5b5f601f19601f8301169050919050565b7f4e487b71000000000000000000000000000000000000000000000000000000005f52604160045260245ffd5b6200024a8262000202565b810181811067ffffffffffffffff821117156200026c576200026b62000212565b5b80604052505050565b5f62000280620001e9565b90506200028e82826200023f565b919050565b5f67ffffffffffffffff821115620002b057620002af62000212565b5b620002bb8262000202565b9050602081019050919050565b5f5b83811015620002e7578082015181840152602081019050620002ca565b5f8484015250505050565b5f62000308620003028462000293565b62000275565b905082815260208101848484011115620003275762000326620001fe565b5b62000334848285620002c8565b509392505050565b5f82601f830112620003535762000352620001fa565b5b815162000365848260208601620002f2565b91505092915050565b5f73ffffffffffffffffffffffffffffffffffffffff82169050919050565b5f62000399826200036e565b9050919050565b620003ab816200038d565b8114620003b6575f80fd5b50565b5f81519050620003c981620003a0565b92915050565b5f819050919050565b620003e381620003cf565b8114620003ee575f80fd5b50565b5f815190506200040181620003d8565b92915050565b5f805f8060808587031215620004225762000421620001f2565b5b5f85015167ffffffffffffffff811115620004425762000441620001f6565b5b62000450878288016200033c565b945050602085015167ffffffffffffffff811115620004745762000473620001f6565b5b62000482878288016200033c565b93505060406200049587828801620003b9565b9250506060620004a887828801620003f1565b91505092959194509250565b5f81519050919050565b7f4e487b71000000000000000000000000000000000000000000000000000000005f52602260045260245ffd5b5f60028204905060018216806200050357607f821691505b602082108103620005195762000518620004be565b5b50919050565b5f819050815f5260205f209050919050565b5f6020601f8301049050919050565b5f82821b905092915050565b5f600883026200057d7fffffffffffffffffffffffffffffffffffffffffffffffffffffffffffffffff8262000540565b62000589868362000540565b95508019841693508086168417925050509392505050565b5f819050919050565b5f620005ca620005c4620005be84620003cf565b620005a1565b620003cf565b9050919050565b5f819050919050565b620005e583620005aa565b620005fd620005f482620005d1565b8484546200054c565b825550505050565b5f90565b6200061362000605565b62000620818484620005da565b505050565b5b8181101562000647576200063b5f8262000609565b60018101905062000626565b5050565b601f821115620006965762000660816200051f565b6200066b8462000531565b810160208510156200067b578190505b620006936200068a8562000531565b83018262000625565b50505b505050565b5f82821c905092915050565b5f620006b85f19846008026200069b565b1980831691505092915050565b5f620006d28383620006a7565b9150826002028217905092915050565b620006ed82620004b4565b67ffffffffffffffff81111562000709576200070862000212565b5b620007158254620004eb565b620007228282856200064b565b5f60209050601f83116001811462000758575f841562000743578287015190505b6200074f8582620006c5565b865550620007be565b601f19841662000768866200051f565b5f5b8281101562000791578489015182556001820191506020850194506020810190506200076a565b86831015620007b15784890151620007ad601f891682620006a7565b8355505b6001600288020188555050505b505050505050565b5f82825260208201905092915050565b7f45524332303a206d696e7420746f20746865207a65726f2061646472657373005f82015250565b5f6200080c601f83620007c6565b91506200081982620007d6565b602082019050919050565b5f6020820190508181035f8301526200083d81620007fe565b9050919050565b7f4e487b71000000000000000000000000000000000000000000000000000000005f52601160045260245ffd5b5f6200087d82620003cf565b91506200088a83620003cf565b9250828201905080821115620008a557620008a462000844565b5b92915050565b620008b681620003cf565b82525050565b5f602082019050620008d15f830184620008ab565b92915050565b6111c380620008e55f395ff3fe608060405234801561000f575f80fd5b50600436106100a7575f3560e01c8063395093511161006f578063395093511461016557806370a082311461019557806395d89b41146101c5578063a457c2d7146101e3578063a9059cbb14610213578063dd62ed3e14610243576100a7565b806306fdde03146100ab578063095ea7b3146100c957806318160ddd146100f957806323b872dd14610117578063313ce56714610147575b5f80fd5b6100b3610273565b6040516100c09190610add565b60405180910390f35b6100e360048036038101906100de9190610b8e565b610303565b6040516100f09190610be6565b60405180910390f35b610101610325565b60405161010e9190610c0e565b60405180910390f35b610131600480360381019061012c9190610c27565b61032e565b60405161013e9190610be6565b60405180910390f35b61014f61035c565b60405161015c9190610c92565b60405180910390f35b61017f600480360381019061017a9190610b8e565b610364565b60405161018c9190610be6565b60405180910390f35b6101af60048036038101906101aa9190610cab565b61039a565b6040516101bc9190610c0e565b60405180910390f35b6101cd6103df565b6040516101da9190610add565b60405180910390f35b6101fd60048036038101906101f89190610b8e565b61046f565b60405161020a9190610be6565b60405180910390f35b61022d60048036038101906102289190610b8e565b6104e4565b60405161023a9190610be6565b60405180910390f35b61025d60048036038101906102589190610cd6565b610506565b60405161026a9190610c0e565b60405180910390f35b60606003805461028290610d41565b80601f01602080910402602001604051908101604052809291908181526020018280546102ae90610d41565b80156102f95780601f106102d0576101008083540402835291602001916102f9565b820191905f5260205f20905b8154815290600101906020018083116102dc57829003601f168201915b5050505050905090565b5f8061030d610588565b905061031a81858561058f565b600191505092915050565b5f600254905090565b5f80610338610588565b9050610345858285610752565b6103508585856107dd565b60019150509392505050565b5f6012905090565b5f8061036e610588565b905061038f8185856103808589610506565b61038a9190610d9e565b61058f565b600191505092915050565b5f805f8373ffffffffffffffffffffffffffffffffffffffff1673ffffffffffffffffffffffffffffffffffffffff1681526020019081526020015f20549050919050565b6060600480546103ee90610d41565b80601f016020809104026020016040519081016040528092919081815260200182805461041a90610d41565b80156104655780601f1061043c57610100808354040283529160200191610465565b820191905f5260205f20905b81548152906001019060200180831161044857829003601f168201915b5050505050905090565b5f80610479610588565b90505f6104868286610506565b9050838110156104cb576040517f08c379a00000000000000000000000000000000000000000000000000000000081526004016104c290610e41565b60405180910390fd5b6104d8828686840361058f565b60019250505092915050565b5f806104ee610588565b90506104fb8185856107dd565b600191505092915050565b5f60015f8473ffffffffffffffffffffffffffffffffffffffff1673ffffffffffffffffffffffffffffffffffffffff1681526020019081526020015f205f8373ffffffffffffffffffffffffffffffffffffffff1673ffffffffffffffffffffffffffffffffffffffff1681526020019081526020015f2054905092915050565b5f33905090565b5f73ffffffffffffffffffffffffffffffffffffffff168373ffffffffffffffffffffffffffffffffffffffff16036105fd576040517f08c379a00000000000000000000000000000000000000000000000000000000081526004016105f490610ecf565b60405180910390fd5b5f73ffffffffffffffffffffffffffffffffffffffff168273ffffffffffffffffffffffffffffffffffffffff160361066b576040517f08c379a000000000000000000000000000000000000000000000000000000000815260040161066290610f5d565b60405180910390fd5b8060015f8573ffffffffffffffffffffffffffffffffffffffff1673ffffffffffffffffffffffffffffffffffffffff1681526020019081526020015f205f8473ffffffffffffffffffffffffffffffffffffffff1673ffffffffffffffffffffffffffffffffffffffff1681526020019081526020015f20819055508173ffffffffffffffffffffffffffffffffffffffff168373ffffffffffffffffffffffffffffffffffffffff167f8c5be1e5ebec7d5bd14f71427d1e84f3dd0314c0f7b2291e5b200ac8c7c3b925836040516107459190610c0e565b60405180910390a3505050565b5f61075d8484610506565b90507fffffffffffffffffffffffffffffffffffffffffffffffffffffffffffffffff81146107d757818110156107c9576040517f08c379a00000000000000000000000000000000000000000000000000000000081526004016107c090610fc5565b60405180910390fd5b6107d6848484840361058f565b5b50505050565b5f73ffffffffffffffffffffffffffffffffffffffff168373ffffffffffffffffffffffffffffffffffffffff160361084b576040517f08c379a000000000000000000000000000000000000000000000000000000000815260040161084290611053565b60405180910390fd5b5f73ffffffffffffffffffffffffffffffffffffffff168273ffffffffffffffffffffffffffffffffffffffff16036108b9576040517f08c379a00000000000000000000000000000000000000000000000000000000081526004016108b0906110e1565b60405180910390fd5b6108c4838383610a49565b5f805f8573ffffffffffffffffffffffffffffffffffffffff1673ffffffffffffffffffffffffffffffffffffffff1681526020019081526020015f2054905081811015610947576040517f08c379a000000000000000000000000000000000000000000000000000000000815260040161093e9061116f565b60405180910390fd5b8181035f808673ffffffffffffffffffffffffffffffffffffffff1673ffffffffffffffffffffffffffffffffffffffff1681526020019081526020015f2081905550815f808573ffffffffffffffffffffffffffffffffffffffff1673ffffffffffffffffffffffffffffffffffffffff1681526020019081526020015f205f82825401925050819055508273ffffffffffffffffffffffffffffffffffffffff168473ffffffffffffffffffffffffffffffffffffffff167fddf252ad1be2c89b69c2b068fc378daa952ba7f163c4a11628f55a4df523b3ef84604051610a309190610c0e565b60405180910390a3610a43848484610a4e565b50505050565b505050565b505050565b5f81519050919050565b5f82825260208201905092915050565b5f5b83811015610a8a578082015181840152602081019050610a6f565b5f8484015250505050565b5f601f19601f8301169050919050565b5f610aaf82610a53565b610ab98185610a5d565b9350610ac9818560208601610a6d565b610ad281610a95565b840191505092915050565b5f6020820190508181035f830152610af58184610aa5565b905092915050565b5f80fd5b5f73ffffffffffffffffffffffffffffffffffffffff82169050919050565b5f610b2a82610b01565b9050919050565b610b3a81610b20565b8114610b44575f80fd5b50565b5f81359050610b5581610b31565b92915050565b5f819050919050565b610b6d81610b5b565b8114610b77575f80fd5b50565b5f81359050610b8881610b64565b92915050565b5f8060408385031215610ba457610ba3610afd565b5b5f610bb185828601610b47565b9250506020610bc285828601610b7a565b9150509250929050565b5f8115159050919050565b610be081610bcc565b82525050565b5f602082019050610bf95f830184610bd7565b92915050565b610c0881610b5b565b82525050565b5f602082019050610c215f830184610bff565b92915050565b5f805f60608486031215610c3e57610c3d610afd565b5b5f610c4b86828701610b47565b9350506020610c5c86828701610b47565b9250506040610c6d86828701610b7a565b9150509250925092565b5f60ff82169050919050565b610c8c81610c77565b82525050565b5f602082019050610ca55f830184610c83565b92915050565b5f60208284031215610cc057610cbf610afd565b5b5f610ccd84828501610b47565b91505092915050565b5f8060408385031215610cec57610ceb610afd565b5b5f610cf985828601610b47565b9250506020610d0a85828601610b47565b9150509250929050565b7f4e487b71000000000000000000000000000000000000000000000000000000005f52602260045260245ffd5b5f6002820490506001821680610d5857607f821691505b602082108103610d6b57610d6a610d14565b5b50919050565b7f4e487b71000000000000000000000000000000000000000000000000000000005f52601160045260245ffd5b5f610da882610b5b565b9150610db383610b5b565b9250828201905080821115610dcb57610dca610d71565b5b92915050565b7f45524332303a2064656372656173656420616c6c6f77616e63652062656c6f775f8201527f207a65726f000000000000000000000000000000000000000000000000000000602082015250565b5f610e2b602583610a5d565b9150610e3682610dd1565b604082019050919050565b5f6020820190508181035f830152610e5881610e1f565b9050919050565b7f45524332303a20617070726f76652066726f6d20746865207a65726f206164645f8201527f7265737300000000000000000000000000000000000000000000000000000000602082015250565b5f610eb9602483610a5d565b9150610ec482610e5f565b604082019050919050565b5f6020820190508181035f830152610ee681610ead565b9050919050565b7f45524332303a20617070726f766520746f20746865207a65726f2061646472655f8201527f7373000000000000000000000000000000000000000000000000000000000000602082015250565b5f610f47602283610a5d565b9150610f5282610eed565b604082019050919050565b5f6020820190508181035f830152610f7481610f3b565b9050919050565b7f45524332303a20696e73756666696369656e7420616c6c6f77616e63650000005f82015250565b5f610faf601d83610a5d565b9150610fba82610f7b565b602082019050919050565b5f6020820190508181035f830152610fdc81610fa3565b9050919050565b7f45524332303a207472616e736665722066726f6d20746865207a65726f2061645f8201527f6472657373000000000000000000000000000000000000000000000000000000602082015250565b5f61103d602583610a5d565b915061104882610fe3565b604082019050919050565b5f6020820190508181035f83015261106a81611031565b9050919050565b7f45524332303a207472616e7366657220746f20746865207a65726f20616464725f8201527f6573730000000000000000000000000000000000000000000000000000000000602082015250565b5f6110cb602383610a5d565b91506110d682611071565b604082019050919050565b5f6020820190508181035f8301526110f8816110bf565b9050919050565b7f45524332303a207472616e7366657220616d6f756e74206578636565647320625f8201527f616c616e63650000000000000000000000000000000000000000000000000000602082015250565b5f611159602683610a5d565b9150611164826110ff565b604082019050919050565b5f6020820190508181035f8301526111868161114d565b905091905056fea2646970667358221220551acb0a2ca565a546f05eef17d5cfa8c2d80f715e03abf15dda0fe82033171764736f6c63430008150033a264697066735822122017f5daa7823b3fd9748d4733a41d6764f23dbb892e25cbcb9772c197beb1c5e464736f6c63430008150033",
			"opcodes": "PUSH1 0x80 PUSH1 0x40 MSTORE CALLVALUE DUP1 ISZERO PUSH2 0xF JUMPI PUSH0 DUP1 REVERT JUMPDEST POP PUSH2 0x273D DUP1 PUSH2 0x1D PUSH0 CODECOPY PUSH0 RETURN INVALID PUSH1 0x80 PUSH1 0x40 MSTORE CALLVALUE DUP1 ISZERO PUSH3 0x10 JUMPI PUSH0 DUP1 REVERT JUMPDEST POP PUSH1 0x4 CALLDATASIZE LT PUSH3 0x38 JUMPI PUSH0 CALLDATALOAD PUSH1 0xE0 SHR DUP1 PUSH4 0x5B060530 EQ PUSH3 0x3C JUMPI DUP1 PUSH4 0xE4860339 EQ PUSH3 0x5C JUMPI JUMPDEST PUSH0 DUP1 REVERT JUMPDEST PUSH3 0x5A PUSH1 0x4 DUP1 CALLDATASIZE SUB DUP2 ADD SWAP1 PUSH3 0x54 SWAP2 SWAP1 PUSH3 0x5D5 JUMP JUMPDEST PUSH3 0x95 JUMP JUMPDEST STOP JUMPDEST PUSH3 0x7A PUSH1 0x4 DUP1 CALLDATASIZE SUB DUP2 ADD SWAP1 PUSH3 0x74 SWAP2 SWAP1 PUSH3 0x6CD JUMP JUMPDEST PUSH3 0x2C0 JUMP JUMPDEST PUSH1 0x40 MLOAD PUSH3 0x8C SWAP5 SWAP4 SWAP3 SWAP2 SWAP1 PUSH3 0x7A3 JUMP JUMPDEST PUSH1 0x40 MLOAD DUP1 SWAP2 SUB SWAP1 RETURN JUMPDEST PUSH0 DUP4 MLOAD GT DUP1 ISZERO PUSH3 0xA6 JUMPI POP PUSH0 DUP3 MLOAD GT JUMPDEST PUSH3 0xE8 JUMPI PUSH1 0x40 MLOAD PUSH32 0x8C379A000000000000000000000000000000000000000000000000000000000 DUP2 MSTORE PUSH1 0x4 ADD PUSH3 0xDF SWAP1 PUSH3 0x84A JUMP JUMPDEST PUSH1 0x40 MLOAD DUP1 SWAP2 SUB SWAP1 REVERT JUMPDEST PUSH0 DUP2 GT PUSH3 0x12D JUMPI PUSH1 0x40 MLOAD PUSH32 0x8C379A000000000000000000000000000000000000000000000000000000000 DUP2 MSTORE PUSH1 0x4 ADD PUSH3 0x124 SWAP1 PUSH3 0x8DE JUMP JUMPDEST PUSH1 0x40 MLOAD DUP1 SWAP2 SUB SWAP1 REVERT JUMPDEST PUSH0 DUP4 DUP4 CALLER DUP5 PUSH1 0x40 MLOAD PUSH3 0x140 SWAP1 PUSH3 0x426 JUMP JUMPDEST PUSH3 0x14F SWAP5 SWAP4 SWAP3 SWAP2 SWAP1 PUSH3 0x8FE JUMP JUMPDEST PUSH1 0x40 MLOAD DUP1 SWAP2 SUB SWAP1 PUSH0 CREATE DUP1 ISZERO DUP1 ISZERO PUSH3 0x169 JUMPI RETURNDATASIZE PUSH0 DUP1 RETURNDATACOPY RETURNDATASIZE PUSH0 REVERT JUMPDEST POP SWAP1 POP PUSH1 0x40 MLOAD DUP1 PUSH1 0x80 ADD PUSH1 0x40 MSTORE DUP1 DUP6 DUP2 MSTORE PUSH1 0x20 ADD DUP5 DUP2 MSTORE PUSH1 0x20 ADD DUP4 DUP2 MSTORE PUSH1 0x20 ADD CALLER PUSH20 0xFFFFFFFFFFFFFFFFFFFFFFFFFFFFFFFFFFFFFFFF AND DUP2 MSTORE POP PUSH0 DUP1 DUP4 PUSH20 0xFFFFFFFFFFFFFFFFFFFFFFFFFFFFFFFFFFFFFFFF AND PUSH20 0xFFFFFFFFFFFFFFFFFFFFFFFFFFFFFFFFFFFFFFFF AND DUP2 MSTORE PUSH1 0x20 ADD SWAP1 DUP2 MSTORE PUSH1 0x20 ADD PUSH0 KECCAK256 PUSH0 DUP3 ADD MLOAD DUP2 PUSH0 ADD SWAP1 DUP2 PUSH3 0x1F4 SWAP2 SWAP1 PUSH3 0xB7B JUMP JUMPDEST POP PUSH1 0x20 DUP3 ADD MLOAD DUP2 PUSH1 0x1 ADD SWAP1 DUP2 PUSH3 0x20C SWAP2 SWAP1 PUSH3 0xB7B JUMP JUMPDEST POP PUSH1 0x40 DUP3 ADD MLOAD DUP2 PUSH1 0x2 ADD SSTORE PUSH1 0x60 DUP3 ADD MLOAD DUP2 PUSH1 0x3 ADD PUSH0 PUSH2 0x100 EXP DUP2 SLOAD DUP2 PUSH20 0xFFFFFFFFFFFFFFFFFFFFFFFFFFFFFFFFFFFFFFFF MUL NOT AND SWAP1 DUP4 PUSH20 0xFFFFFFFFFFFFFFFFFFFFFFFFFFFFFFFFFFFFFFFF AND MUL OR SWAP1 SSTORE POP SWAP1 POP POP CALLER PUSH20 0xFFFFFFFFFFFFFFFFFFFFFFFFFFFFFFFFFFFFFFFF AND DUP2 PUSH20 0xFFFFFFFFFFFFFFFFFFFFFFFFFFFFFFFFFFFFFFFF AND PUSH32 0xD5F9BDF12ADF29DAB0248C349842C3822D53AE2BB4F36352F301630D018C8139 PUSH1 0x40 MLOAD PUSH1 0x40 MLOAD DUP1 SWAP2 SUB SWAP1 LOG3 POP POP POP POP JUMP JUMPDEST PUSH0 PUSH1 0x20 MSTORE DUP1 PUSH0 MSTORE PUSH1 0x40 PUSH0 KECCAK256 PUSH0 SWAP2 POP SWAP1 POP DUP1 PUSH0 ADD DUP1 SLOAD PUSH3 0x2E0 SWAP1 PUSH3 0x984 JUMP JUMPDEST DUP1 PUSH1 0x1F ADD PUSH1 0x20 DUP1 SWAP2 DIV MUL PUSH1 0x20 ADD PUSH1 0x40 MLOAD SWAP1 DUP2 ADD PUSH1 0x40 MSTORE DUP1 SWAP3 SWAP2 SWAP1 DUP2 DUP2 MSTORE PUSH1 0x20 ADD DUP3 DUP1 SLOAD PUSH3 0x30E SWAP1 PUSH3 0x984 JUMP JUMPDEST DUP1 ISZERO PUSH3 0x35D JUMPI DUP1 PUSH1 0x1F LT PUSH3 0x333 JUMPI PUSH2 0x100 DUP1 DUP4 SLOAD DIV MUL DUP4 MSTORE SWAP2 PUSH1 0x20 ADD SWAP2 PUSH3 0x35D JUMP JUMPDEST DUP3 ADD SWAP2 SWAP1 PUSH0 MSTORE PUSH1 0x20 PUSH0 KECCAK256 SWAP1 JUMPDEST DUP2 SLOAD DUP2 MSTORE SWAP1 PUSH1 0x1 ADD SWAP1 PUSH1 0x20 ADD DUP1 DUP4 GT PUSH3 0x33F JUMPI DUP3 SWAP1 SUB PUSH1 0x1F AND DUP3 ADD SWAP2 JUMPDEST POP POP POP POP POP SWAP1 DUP1 PUSH1 0x1 ADD DUP1 SLOAD PUSH3 0x374 SWAP1 PUSH3 0x984 JUMP JUMPDEST DUP1 PUSH1 0x1F ADD PUSH1 0x20 DUP1 SWAP2 DIV MUL PUSH1 0x20 ADD PUSH1 0x40 MLOAD SWAP1 DUP2 ADD PUSH1 0x40 MSTORE DUP1 SWAP3 SWAP2 SWAP1 DUP2 DUP2 MSTORE PUSH1 0x20 ADD DUP3 DUP1 SLOAD PUSH3 0x3A2 SWAP1 PUSH3 0x984 JUMP JUMPDEST DUP1 ISZERO PUSH3 0x3F1 JUMPI DUP1 PUSH1 0x1F LT PUSH3 0x3C7 JUMPI PUSH2 0x100 DUP1 DUP4 SLOAD DIV MUL DUP4 MSTORE SWAP2 PUSH1 0x20 ADD SWAP2 PUSH3 0x3F1 JUMP JUMPDEST DUP3 ADD SWAP2 SWAP1 PUSH0 MSTORE PUSH1 0x20 PUSH0 KECCAK256 SWAP1 JUMPDEST DUP2 SLOAD DUP2 MSTORE SWAP1 PUSH1 0x1 ADD SWAP1 PUSH1 0x20 ADD DUP1 DUP4 GT PUSH3 0x3D3 JUMPI DUP3 SWAP1 SUB PUSH1 0x1F AND DUP3 ADD SWAP2 JUMPDEST POP POP POP POP POP SWAP1 DUP1 PUSH1 0x2 ADD SLOAD SWAP1 DUP1 PUSH1 0x3 ADD PUSH0 SWAP1 SLOAD SWAP1 PUSH2 0x100 EXP SWAP1 DIV PUSH20 0xFFFFFFFFFFFFFFFFFFFFFFFFFFFFFFFFFFFFFFFF AND SWAP1 POP DUP5 JUMP JUMPDEST PUSH2 0x1AA8 DUP1 PUSH3 0xC60 DUP4 CODECOPY ADD SWAP1 JUMP JUMPDEST PUSH0 PUSH1 0x40 MLOAD SWAP1 POP SWAP1 JUMP JUMPDEST PUSH0 DUP1 REVERT JUMPDEST PUSH0 DUP1 REVERT JUMPDEST PUSH0 DUP1 REVERT JUMPDEST PUSH0 DUP1 REVERT JUMPDEST PUSH0 PUSH1 0x1F NOT PUSH1 0x1F DUP4 ADD AND SWAP1 POP SWAP2 SWAP1 POP JUMP JUMPDEST PUSH32 0x4E487B7100000000000000000000000000000000000000000000000000000000 PUSH0 MSTORE PUSH1 0x41 PUSH1 0x4 MSTORE PUSH1 0x24 PUSH0 REVERT JUMPDEST PUSH3 0x495 DUP3 PUSH3 0x44D JUMP JUMPDEST DUP2 ADD DUP2 DUP2 LT PUSH8 0xFFFFFFFFFFFFFFFF DUP3 GT OR ISZERO PUSH3 0x4B7 JUMPI PUSH3 0x4B6 PUSH3 0x45D JUMP JUMPDEST JUMPDEST DUP1 PUSH1 0x40 MSTORE POP POP POP JUMP JUMPDEST PUSH0 PUSH3 0x4CB PUSH3 0x434 JUMP JUMPDEST SWAP1 POP PUSH3 0x4D9 DUP3 DUP3 PUSH3 0x48A JUMP JUMPDEST SWAP2 SWAP1 POP JUMP JUMPDEST PUSH0 PUSH8 0xFFFFFFFFFFFFFFFF DUP3 GT ISZERO PUSH3 0x4FB JUMPI PUSH3 0x4FA PUSH3 0x45D JUMP JUMPDEST JUMPDEST PUSH3 0x506 DUP3 PUSH3 0x44D JUMP JUMPDEST SWAP1 POP PUSH1 0x20 DUP2 ADD SWAP1 POP SWAP2 SWAP1 POP JUMP JUMPDEST DUP3 DUP2 DUP4 CALLDATACOPY PUSH0 DUP4 DUP4 ADD MSTORE POP POP POP JUMP JUMPDEST PUSH0 PUSH3 0x537 PUSH3 0x531 DUP5 PUSH3 0x4DE JUMP JUMPDEST PUSH3 0x4C0 JUMP JUMPDEST SWAP1 POP DUP3 DUP2 MSTORE PUSH1 0x20 DUP2 ADD DUP5 DUP5 DUP5 ADD GT ISZERO PUSH3 0x556 JUMPI PUSH3 0x555 PUSH3 0x449 JUMP JUMPDEST JUMPDEST PUSH3 0x563 DUP5 DUP3 DUP6 PUSH3 0x513 JUMP JUMPDEST POP SWAP4 SWAP3 POP POP POP JUMP JUMPDEST PUSH0 DUP3 PUSH1 0x1F DUP4 ADD SLT PUSH3 0x582 JUMPI PUSH3 0x581 PUSH3 0x445 JUMP JUMPDEST JUMPDEST DUP2 CALLDATALOAD PUSH3 0x594 DUP5 DUP3 PUSH1 0x20 DUP7 ADD PUSH3 0x521 JUMP JUMPDEST SWAP2 POP POP SWAP3 SWAP2 POP POP JUMP JUMPDEST PUSH0 DUP2 SWAP1 POP SWAP2 SWAP1 POP JUMP JUMPDEST PUSH3 0x5B1 DUP2 PUSH3 0x59D JUMP JUMPDEST DUP2 EQ PUSH3 0x5BC JUMPI PUSH0 DUP1 REVERT JUMPDEST POP JUMP JUMPDEST PUSH0 DUP2 CALLDATALOAD SWAP1 POP PUSH3 0x5CF DUP2 PUSH3 0x5A6 JUMP JUMPDEST SWAP3 SWAP2 POP POP JUMP JUMPDEST PUSH0 DUP1 PUSH0 PUSH1 0x60 DUP5 DUP7 SUB SLT ISZERO PUSH3 0x5EF JUMPI PUSH3 0x5EE PUSH3 0x43D JUMP JUMPDEST JUMPDEST PUSH0 DUP5 ADD CALLDATALOAD PUSH8 0xFFFFFFFFFFFFFFFF DUP2 GT ISZERO PUSH3 0x60F JUMPI PUSH3 0x60E PUSH3 0x441 JUMP JUMPDEST JUMPDEST PUSH3 0x61D DUP7 DUP3 DUP8 ADD PUSH3 0x56B JUMP JUMPDEST SWAP4 POP POP PUSH1 0x20 DUP5 ADD CALLDATALOAD PUSH8 0xFFFFFFFFFFFFFFFF DUP2 GT ISZERO PUSH3 0x641 JUMPI PUSH3 0x640 PUSH3 0x441 JUMP JUMPDEST JUMPDEST PUSH3 0x64F DUP7 DUP3 DUP8 ADD PUSH3 0x56B JUMP JUMPDEST SWAP3 POP POP PUSH1 0x40 PUSH3 0x662 DUP7 DUP3 DUP8 ADD PUSH3 0x5BF JUMP JUMPDEST SWAP2 POP POP SWAP3 POP SWAP3 POP SWAP3 JUMP JUMPDEST PUSH0 PUSH20 0xFFFFFFFFFFFFFFFFFFFFFFFFFFFFFFFFFFFFFFFF DUP3 AND SWAP1 POP SWAP2 SWAP1 POP JUMP JUMPDEST PUSH0 PUSH3 0x697 DUP3 PUSH3 0x66C JUMP JUMPDEST SWAP1 POP SWAP2 SWAP1 POP JUMP JUMPDEST PUSH3 0x6A9 DUP2 PUSH3 0x68B JUMP JUMPDEST DUP2 EQ PUSH3 0x6B4 JUMPI PUSH0 DUP1 REVERT JUMPDEST POP JUMP JUMPDEST PUSH0 DUP2 CALLDATALOAD SWAP1 POP PUSH3 0x6C7 DUP2 PUSH3 0x69E JUMP JUMPDEST SWAP3 SWAP2 POP POP JUMP JUMPDEST PUSH0 PUSH1 0x20 DUP3 DUP5 SUB SLT ISZERO PUSH3 0x6E5 JUMPI PUSH3 0x6E4 PUSH3 0x43D JUMP JUMPDEST JUMPDEST PUSH0 PUSH3 0x6F4 DUP5 DUP3 DUP6 ADD PUSH3 0x6B7 JUMP JUMPDEST SWAP2 POP POP SWAP3 SWAP2 POP POP JUMP JUMPDEST PUSH0 DUP2 MLOAD SWAP1 POP SWAP2 SWAP1 POP JUMP JUMPDEST PUSH0 DUP3 DUP3 MSTORE PUSH1 0x20 DUP3 ADD SWAP1 POP SWAP3 SWAP2 POP POP JUMP JUMPDEST PUSH0 JUMPDEST DUP4 DUP2 LT ISZERO PUSH3 0x736 JUMPI DUP1 DUP3 ADD MLOAD DUP2 DUP5 ADD MSTORE PUSH1 0x20 DUP2 ADD SWAP1 POP PUSH3 0x719 JUMP JUMPDEST PUSH0 DUP5 DUP5 ADD MSTORE POP POP POP POP JUMP JUMPDEST PUSH0 PUSH3 0x74D DUP3 PUSH3 0x6FD JUMP JUMPDEST PUSH3 0x759 DUP2 DUP6 PUSH3 0x707 JUMP JUMPDEST SWAP4 POP PUSH3 0x76B DUP2 DUP6 PUSH1 0x20 DUP7 ADD PUSH3 0x717 JUMP JUMPDEST PUSH3 0x776 DUP2 PUSH3 0x44D JUMP JUMPDEST DUP5 ADD SWAP2 POP POP SWAP3 SWAP2 POP POP JUMP JUMPDEST PUSH3 0x78C DUP2 PUSH3 0x59D JUMP JUMPDEST DUP3 MSTORE POP POP JUMP JUMPDEST PUSH3 0x79D DUP2 PUSH3 0x68B JUMP JUMPDEST DUP3 MSTORE POP POP JUMP JUMPDEST PUSH0 PUSH1 0x80 DUP3 ADD SWAP1 POP DUP2 DUP2 SUB PUSH0 DUP4 ADD MSTORE PUSH3 0x7BD DUP2 DUP8 PUSH3 0x741 JUMP JUMPDEST SWAP1 POP DUP2 DUP2 SUB PUSH1 0x20 DUP4 ADD MSTORE PUSH3 0x7D3 DUP2 DUP7 PUSH3 0x741 JUMP JUMPDEST SWAP1 POP PUSH3 0x7E4 PUSH1 0x40 DUP4 ADD DUP6 PUSH3 0x781 JUMP JUMPDEST PUSH3 0x7F3 PUSH1 0x60 DUP4 ADD DUP5 PUSH3 0x792 JUMP JUMPDEST SWAP6 SWAP5 POP POP POP POP POP JUMP JUMPDEST PUSH32 0x4E616D6520616E642073796D626F6C2063616E6E6F7420626520656D70747900 PUSH0 DUP3 ADD MSTORE POP JUMP JUMPDEST PUSH0 PUSH3 0x832 PUSH1 0x1F DUP4 PUSH3 0x707 JUMP JUMPDEST SWAP2 POP PUSH3 0x83F DUP3 PUSH3 0x7FC JUMP JUMPDEST PUSH1 0x20 DUP3 ADD SWAP1 POP SWAP2 SWAP1 POP JUMP JUMPDEST PUSH0 PUSH1 0x20 DUP3 ADD SWAP1 POP DUP2 DUP2 SUB PUSH0 DUP4 ADD MSTORE PUSH3 0x863 DUP2 PUSH3 0x824 JUMP JUMPDEST SWAP1 POP SWAP2 SWAP1 POP JUMP JUMPDEST PUSH32 0x496E697469616C20737570706C79206D75737420626520677265617465722074 PUSH0 DUP3 ADD MSTORE PUSH32 0x68616E2030000000000000000000000000000000000000000000000000000000 PUSH1 0x20 DUP3 ADD MSTORE POP JUMP JUMPDEST PUSH0 PUSH3 0x8C6 PUSH1 0x25 DUP4 PUSH3 0x707 JUMP JUMPDEST SWAP2 POP PUSH3 0x8D3 DUP3 PUSH3 0x86A JUMP JUMPDEST PUSH1 0x40 DUP3 ADD SWAP1 POP SWAP2 SWAP1 POP JUMP JUMPDEST PUSH0 PUSH1 0x20 DUP3 ADD SWAP1 POP DUP2 DUP2 SUB PUSH0 DUP4 ADD MSTORE PUSH3 0x8F7 DUP2 PUSH3 0x8B8 JUMP JUMPDEST SWAP1 POP SWAP2 SWAP1 POP JUMP JUMPDEST PUSH0 PUSH1 0x80 DUP3 ADD SWAP1 POP DUP2 DUP2 SUB PUSH0 DUP4 ADD MSTORE PUSH3 0x918 DUP2 DUP8 PUSH3 0x741 JUMP JUMPDEST SWAP1 POP DUP2 DUP2 SUB PUSH1 0x20 DUP4 ADD MSTORE PUSH3 0x92E DUP2 DUP7 PUSH3 0x741 JUMP JUMPDEST SWAP1 POP PUSH3 0x93F PUSH1 0x40 DUP4 ADD DUP6 PUSH3 0x792 JUMP JUMPDEST PUSH3 0x94E PUSH1 0x60 DUP4 ADD DUP5 PUSH3 0x781 JUMP JUMPDEST SWAP6 SWAP5 POP POP POP POP POP JUMP JUMPDEST PUSH32 0x4E487B7100000000000000000000000000000000000000000000000000000000 PUSH0 MSTORE PUSH1 0x22 PUSH1 0x4 MSTORE PUSH1 0x24 PUSH0 REVERT JUMPDEST PUSH0 PUSH1 0x2 DUP3 DIV SWAP1 POP PUSH1 0x1 DUP3 AND DUP1 PUSH3 0x99C JUMPI PUSH1 0x7F DUP3 AND SWAP2 POP JUMPDEST PUSH1 0x20 DUP3 LT DUP2 SUB PUSH3 0x9B2 JUMPI PUSH3 0x9B1 PUSH3 0x957 JUMP JUMPDEST JUMPDEST POP SWAP2 SWAP1 POP JUMP JUMPDEST PUSH0 DUP2 SWAP1 POP DUP2 PUSH0 MSTORE PUSH1 0x20 PUSH0 KECCAK256 SWAP1 POP SWAP2 SWAP1 POP JUMP JUMPDEST PUSH0 PUSH1 0x20 PUSH1 0x1F DUP4 ADD DIV SWAP1 POP SWAP2 SWAP1 POP JUMP JUMPDEST PUSH0 DUP3 DUP3 SHL SWAP1 POP SWAP3 SWAP2 POP POP JUMP JUMPDEST PUSH0 PUSH1 0x8 DUP4 MUL PUSH3 0xA16 PUSH32 0xFFFFFFFFFFFFFFFFFFFFFFFFFFFFFFFFFFFFFFFFFFFFFFFFFFFFFFFFFFFFFFFF DUP3 PUSH3 0x9D9 JUMP JUMPDEST PUSH3 0xA22 DUP7 DUP4 PUSH3 0x9D9 JUMP JUMPDEST SWAP6 POP DUP1 NOT DUP5 AND SWAP4 POP DUP1 DUP7 AND DUP5 OR SWAP3 POP POP POP SWAP4 SWAP3 POP POP POP JUMP JUMPDEST PUSH0 DUP2 SWAP1 POP SWAP2 SWAP1 POP JUMP JUMPDEST PUSH0 PUSH3 0xA63 PUSH3 0xA5D PUSH3 0xA57 DUP5 PUSH3 0x59D JUMP JUMPDEST PUSH3 0xA3A JUMP JUMPDEST PUSH3 0x59D JUMP JUMPDEST SWAP1 POP SWAP2 SWAP1 POP JUMP JUMPDEST PUSH0 DUP2 SWAP1 POP SWAP2 SWAP1 POP JUMP JUMPDEST PUSH3 0xA7E DUP4 PUSH3 0xA43 JUMP JUMPDEST PUSH3 0xA96 PUSH3 0xA8D DUP3 PUSH3 0xA6A JUMP JUMPDEST DUP5 DUP5 SLOAD PUSH3 0x9E5 JUMP JUMPDEST DUP3 SSTORE POP POP POP POP JUMP JUMPDEST PUSH0 SWAP1 JUMP JUMPDEST PUSH3 0xAAC PUSH3 0xA9E JUMP JUMPDEST PUSH3 0xAB9 DUP2 DUP5 DUP5 PUSH3 0xA73 JUMP JUMPDEST POP POP POP JUMP JUMPDEST JUMPDEST DUP2 DUP2 LT ISZERO PUSH3 0xAE0 JUMPI PUSH3 0xAD4 PUSH0 DUP3 PUSH3 0xAA2 JUMP JUMPDEST PUSH1 0x1 DUP2 ADD SWAP1 POP PUSH3 0xABF JUMP JUMPDEST POP POP JUMP JUMPDEST PUSH1 0x1F DUP3 GT ISZERO PUSH3 0xB2F JUMPI PUSH3 0xAF9 DUP2 PUSH3 0x9B8 JUMP JUMPDEST PUSH3 0xB04 DUP5 PUSH3 0x9CA JUMP JUMPDEST DUP2 ADD PUSH1 0x20 DUP6 LT ISZERO PUSH3 0xB14 JUMPI DUP2 SWAP1 POP JUMPDEST PUSH3 0xB2C PUSH3 0xB23 DUP6 PUSH3 0x9CA JUMP JUMPDEST DUP4 ADD DUP3 PUSH3 0xABE JUMP JUMPDEST POP POP JUMPDEST POP POP POP JUMP JUMPDEST PUSH0 DUP3 DUP3 SHR SWAP1 POP SWAP3 SWAP2 POP POP JUMP JUMPDEST PUSH0 PUSH3 0xB51 PUSH0 NOT DUP5 PUSH1 0x8 MUL PUSH3 0xB34 JUMP JUMPDEST NOT DUP1 DUP4 AND SWAP2 POP POP SWAP3 SWAP2 POP POP JUMP JUMPDEST PUSH0 PUSH3 0xB6B DUP4 DUP4 PUSH3 0xB40 JUMP JUMPDEST SWAP2 POP DUP3 PUSH1 0x2 MUL DUP3 OR SWAP1 POP SWAP3 SWAP2 POP POP JUMP JUMPDEST PUSH3 0xB86 DUP3 PUSH3 0x6FD JUMP JUMPDEST PUSH8 0xFFFFFFFFFFFFFFFF DUP2 GT ISZERO PUSH3 0xBA2 JUMPI PUSH3 0xBA1 PUSH3 0x45D JUMP JUMPDEST JUMPDEST PUSH3 0xBAE DUP3 SLOAD PUSH3 0x984 JUMP JUMPDEST PUSH3 0xBBB DUP3 DUP3 DUP6 PUSH3 0xAE4 JUMP JUMPDEST PUSH0 PUSH1 0x20 SWAP1 POP PUSH1 0x1F DUP4 GT PUSH1 0x1 DUP2 EQ PUSH3 0xBF1 JUMPI PUSH0 DUP5 ISZERO PUSH3 0xBDC JUMPI DUP3 DUP8 ADD MLOAD SWAP1 POP JUMPDEST PUSH3 0xBE8 DUP6 DUP3 PUSH3 0xB5E JUMP JUMPDEST DUP7 SSTORE POP PUSH3 0xC57 JUMP JUMPDEST PUSH1 0x1F NOT DUP5 AND PUSH3 0xC01 DUP7 PUSH3 0x9B8 JUMP JUMPDEST PUSH0 JUMPDEST DUP3 DUP2 LT ISZERO PUSH3 0xC2A JUMPI DUP5 DUP10 ADD MLOAD DUP3 SSTORE PUSH1 0x1 DUP3 ADD SWAP2 POP PUSH1 0x20 DUP6 ADD SWAP5 POP PUSH1 0x20 DUP2 ADD SWAP1 POP PUSH3 0xC03 JUMP JUMPDEST DUP7 DUP4 LT ISZERO PUSH3 0xC4A JUMPI DUP5 DUP10 ADD MLOAD PUSH3 0xC46 PUSH1 0x1F DUP10 AND DUP3 PUSH3 0xB40 JUMP JUMPDEST DUP4 SSTORE POP JUMPDEST PUSH1 0x1 PUSH1 0x2 DUP9 MUL ADD DUP9 SSTORE POP POP POP JUMPDEST POP POP POP POP POP POP JUMP INVALID PUSH1 0x80 PUSH1 0x40 MSTORE CALLVALUE DUP1 ISZERO PUSH3 0x10 JUMPI PUSH0 DUP1 REVERT JUMPDEST POP PUSH1 0x40 MLOAD PUSH3 0x1AA8 CODESIZE SUB DUP1 PUSH3 0x1AA8 DUP4 CODECOPY DUP2 DUP2 ADD PUSH1 0x40 MSTORE DUP2 ADD SWAP1 PUSH3 0x36 SWAP2 SWAP1 PUSH3 0x407 JUMP JUMPDEST DUP4 DUP4 DUP2 PUSH1 0x3 SWAP1 DUP2 PUSH3 0x49 SWAP2 SWAP1 PUSH3 0x6E2 JUMP JUMPDEST POP DUP1 PUSH1 0x4 SWAP1 DUP2 PUSH3 0x5B SWAP2 SWAP1 PUSH3 0x6E2 JUMP JUMPDEST POP POP POP PUSH3 0x70 DUP3 DUP3 PUSH3 0x7A PUSH1 0x20 SHL PUSH1 0x20 SHR JUMP JUMPDEST POP POP POP POP PUSH3 0x8D7 JUMP JUMPDEST PUSH0 PUSH20 0xFFFFFFFFFFFFFFFFFFFFFFFFFFFFFFFFFFFFFFFF AND DUP3 PUSH20 0xFFFFFFFFFFFFFFFFFFFFFFFFFFFFFFFFFFFFFFFF AND SUB PUSH3 0xEB JUMPI PUSH1 0x40 MLOAD PUSH32 0x8C379A000000000000000000000000000000000000000000000000000000000 DUP2 MSTORE PUSH1 0x4 ADD PUSH3 0xE2 SWAP1 PUSH3 0x824 JUMP JUMPDEST PUSH1 0x40 MLOAD DUP1 SWAP2 SUB SWAP1 REVERT JUMPDEST PUSH3 0xFE PUSH0 DUP4 DUP4 PUSH3 0x1DF PUSH1 0x20 SHL PUSH1 0x20 SHR JUMP JUMPDEST DUP1 PUSH1 0x2 PUSH0 DUP3 DUP3 SLOAD PUSH3 0x111 SWAP2 SWAP1 PUSH3 0x871 JUMP JUMPDEST SWAP3 POP POP DUP2 SWAP1 SSTORE POP DUP1 PUSH0 DUP1 DUP5 PUSH20 0xFFFFFFFFFFFFFFFFFFFFFFFFFFFFFFFFFFFFFFFF AND PUSH20 0xFFFFFFFFFFFFFFFFFFFFFFFFFFFFFFFFFFFFFFFF AND DUP2 MSTORE PUSH1 0x20 ADD SWAP1 DUP2 MSTORE PUSH1 0x20 ADD PUSH0 KECCAK256 PUSH0 DUP3 DUP3 SLOAD ADD SWAP3 POP POP DUP2 SWAP1 SSTORE POP DUP2 PUSH20 0xFFFFFFFFFFFFFFFFFFFFFFFFFFFFFFFFFFFFFFFF AND PUSH0 PUSH20 0xFFFFFFFFFFFFFFFFFFFFFFFFFFFFFFFFFFFFFFFF AND PUSH32 0xDDF252AD1BE2C89B69C2B068FC378DAA952BA7F163C4A11628F55A4DF523B3EF DUP4 PUSH1 0x40 MLOAD PUSH3 0x1C0 SWAP2 SWAP1 PUSH3 0x8BC JUMP JUMPDEST PUSH1 0x40 MLOAD DUP1 SWAP2 SUB SWAP1 LOG3 PUSH3 0x1DB PUSH0 DUP4 DUP4 PUSH3 0x1E4 PUSH1 0x20 SHL PUSH1 0x20 SHR JUMP JUMPDEST POP POP JUMP JUMPDEST POP POP POP JUMP JUMPDEST POP POP POP JUMP JUMPDEST PUSH0 PUSH1 0x40 MLOAD SWAP1 POP SWAP1 JUMP JUMPDEST PUSH0 DUP1 REVERT JUMPDEST PUSH0 DUP1 REVERT JUMPDEST PUSH0 DUP1 REVERT JUMPDEST PUSH0 DUP1 REVERT JUMPDEST PUSH0 PUSH1 0x1F NOT PUSH1 0x1F DUP4 ADD AND SWAP1 POP SWAP2 SWAP1 POP JUMP JUMPDEST PUSH32 0x4E487B7100000000000000000000000000000000000000000000000000000000 PUSH0 MSTORE PUSH1 0x41 PUSH1 0x4 MSTORE PUSH1 0x24 PUSH0 REVERT JUMPDEST PUSH3 0x24A DUP3 PUSH3 0x202 JUMP JUMPDEST DUP2 ADD DUP2 DUP2 LT PUSH8 0xFFFFFFFFFFFFFFFF DUP3 GT OR ISZERO PUSH3 0x26C JUMPI PUSH3 0x26B PUSH3 0x212 JUMP JUMPDEST JUMPDEST DUP1 PUSH1 0x40 MSTORE POP POP POP JUMP JUMPDEST PUSH0 PUSH3 0x280 PUSH3 0x1E9 JUMP JUMPDEST SWAP1 POP PUSH3 0x28E DUP3 DUP3 PUSH3 0x23F JUMP JUMPDEST SWAP2 SWAP1 POP JUMP JUMPDEST PUSH0 PUSH8 0xFFFFFFFFFFFFFFFF DUP3 GT ISZERO PUSH3 0x2B0 JUMPI PUSH3 0x2AF PUSH3 0x212 JUMP JUMPDEST JUMPDEST PUSH3 0x2BB DUP3 PUSH3 0x202 JUMP JUMPDEST SWAP1 POP PUSH1 0x20 DUP2 ADD SWAP1 POP SWAP2 SWAP1 POP JUMP JUMPDEST PUSH0 JUMPDEST DUP4 DUP2 LT ISZERO PUSH3 0x2E7 JUMPI DUP1 DUP3 ADD MLOAD DUP2 DUP5 ADD MSTORE PUSH1 0x20 DUP2 ADD SWAP1 POP PUSH3 0x2CA JUMP JUMPDEST PUSH0 DUP5 DUP5 ADD MSTORE POP POP POP POP JUMP JUMPDEST PUSH0 PUSH3 0x308 PUSH3 0x302 DUP5 PUSH3 0x293 JUMP JUMPDEST PUSH3 0x275 JUMP JUMPDEST SWAP1 POP DUP3 DUP2 MSTORE PUSH1 0x20 DUP2 ADD DUP5 DUP5 DUP5 ADD GT ISZERO PUSH3 0x327 JUMPI PUSH3 0x326 PUSH3 0x1FE JUMP JUMPDEST JUMPDEST PUSH3 0x334 DUP5 DUP3 DUP6 PUSH3 0x2C8 JUMP JUMPDEST POP SWAP4 SWAP3 POP POP POP JUMP JUMPDEST PUSH0 DUP3 PUSH1 0x1F DUP4 ADD SLT PUSH3 0x353 JUMPI PUSH3 0x352 PUSH3 0x1FA JUMP JUMPDEST JUMPDEST DUP2 MLOAD PUSH3 0x365 DUP5 DUP3 PUSH1 0x20 DUP7 ADD PUSH3 0x2F2 JUMP JUMPDEST SWAP2 POP POP SWAP3 SWAP2 POP POP JUMP JUMPDEST PUSH0 PUSH20 0xFFFFFFFFFFFFFFFFFFFFFFFFFFFFFFFFFFFFFFFF DUP3 AND SWAP1 POP SWAP2 SWAP1 POP JUMP JUMPDEST PUSH0 PUSH3 0x399 DUP3 PUSH3 0x36E JUMP JUMPDEST SWAP1 POP SWAP2 SWAP1 POP JUMP JUMPDEST PUSH3 0x3AB DUP2 PUSH3 0x38D JUMP JUMPDEST DUP2 EQ PUSH3 0x3B6 JUMPI PUSH0 DUP1 REVERT JUMPDEST POP JUMP JUMPDEST PUSH0 DUP2 MLOAD SWAP1 POP PUSH3 0x3C9 DUP2 PUSH3 0x3A0 JUMP JUMPDEST SWAP3 SWAP2 POP POP JUMP JUMPDEST PUSH0 DUP2 SWAP1 POP SWAP2 SWAP1 POP JUMP JUMPDEST PUSH3 0x3E3 DUP2 PUSH3 0x3CF JUMP JUMPDEST DUP2 EQ PUSH3 0x3EE JUMPI PUSH0 DUP1 REVERT JUMPDEST POP JUMP JUMPDEST PUSH0 DUP2 MLOAD SWAP1 POP PUSH3 0x401 DUP2 PUSH3 0x3D8 JUMP JUMPDEST SWAP3 SWAP2 POP POP JUMP JUMPDEST PUSH0 DUP1 PUSH0 DUP1 PUSH1 0x80 DUP6 DUP8 SUB SLT ISZERO PUSH3 0x422 JUMPI PUSH3 0x421 PUSH3 0x1F2 JUMP JUMPDEST JUMPDEST PUSH0 DUP6 ADD MLOAD PUSH8 0xFFFFFFFFFFFFFFFF DUP2 GT ISZERO PUSH3 0x442 JUMPI PUSH3 0x441 PUSH3 0x1F6 JUMP JUMPDEST JUMPDEST PUSH3 0x450 DUP8 DUP3 DUP9 ADD PUSH3 0x33C JUMP JUMPDEST SWAP5 POP POP PUSH1 0x20 DUP6 ADD MLOAD PUSH8 0xFFFFFFFFFFFFFFFF DUP2 GT ISZERO PUSH3 0x474 JUMPI PUSH3 0x473 PUSH3 0x1F6 JUMP JUMPDEST JUMPDEST PUSH3 0x482 DUP8 DUP3 DUP9 ADD PUSH3 0x33C JUMP JUMPDEST SWAP4 POP POP PUSH1 0x40 PUSH3 0x495 DUP8 DUP3 DUP9 ADD PUSH3 0x3B9 JUMP JUMPDEST SWAP3 POP POP PUSH1 0x60 PUSH3 0x4A8 DUP8 DUP3 DUP9 ADD PUSH3 0x3F1 JUMP JUMPDEST SWAP2 POP POP SWAP3 SWAP6 SWAP2 SWAP5 POP SWAP3 POP JUMP JUMPDEST PUSH0 DUP2 MLOAD SWAP1 POP SWAP2 SWAP1 POP JUMP JUMPDEST PUSH32 0x4E487B7100000000000000000000000000000000000000000000000000000000 PUSH0 MSTORE PUSH1 0x22 PUSH1 0x4 MSTORE PUSH1 0x24 PUSH0 REVERT JUMPDEST PUSH0 PUSH1 0x2 DUP3 DIV SWAP1 POP PUSH1 0x1 DUP3 AND DUP1 PUSH3 0x503 JUMPI PUSH1 0x7F DUP3 AND SWAP2 POP JUMPDEST PUSH1 0x20 DUP3 LT DUP2 SUB PUSH3 0x519 JUMPI PUSH3 0x518 PUSH3 0x4BE JUMP JUMPDEST JUMPDEST POP SWAP2 SWAP1 POP JUMP JUMPDEST PUSH0 DUP2 SWAP1 POP DUP2 PUSH0 MSTORE PUSH1 0x20 PUSH0 KECCAK256 SWAP1 POP SWAP2 SWAP1 POP JUMP JUMPDEST PUSH0 PUSH1 0x20 PUSH1 0x1F DUP4 ADD DIV SWAP1 POP SWAP2 SWAP1 POP JUMP JUMPDEST PUSH0 DUP3 DUP3 SHL SWAP1 POP SWAP3 SWAP2 POP POP JUMP JUMPDEST PUSH0 PUSH1 0x8 DUP4 MUL PUSH3 0x57D PUSH32 0xFFFFFFFFFFFFFFFFFFFFFFFFFFFFFFFFFFFFFFFFFFFFFFFFFFFFFFFFFFFFFFFF DUP3 PUSH3 0x540 JUMP JUMPDEST PUSH3 0x589 DUP7 DUP4 PUSH3 0x540 JUMP JUMPDEST SWAP6 POP DUP1 NOT DUP5 AND SWAP4 POP DUP1 DUP7 AND DUP5 OR SWAP3 POP POP POP SWAP4 SWAP3 POP POP POP JUMP JUMPDEST PUSH0 DUP2 SWAP1 POP SWAP2 SWAP1 POP JUMP JUMPDEST PUSH0 PUSH3 0x5CA PUSH3 0x5C4 PUSH3 0x5BE DUP5 PUSH3 0x3CF JUMP JUMPDEST PUSH3 0x5A1 JUMP JUMPDEST PUSH3 0x3CF JUMP JUMPDEST SWAP1 POP SWAP2 SWAP1 POP JUMP JUMPDEST PUSH0 DUP2 SWAP1 POP SWAP2 SWAP1 POP JUMP JUMPDEST PUSH3 0x5E5 DUP4 PUSH3 0x5AA JUMP JUMPDEST PUSH3 0x5FD PUSH3 0x5F4 DUP3 PUSH3 0x5D1 JUMP JUMPDEST DUP5 DUP5 SLOAD PUSH3 0x54C JUMP JUMPDEST DUP3 SSTORE POP POP POP POP JUMP JUMPDEST PUSH0 SWAP1 JUMP JUMPDEST PUSH3 0x613 PUSH3 0x605 JUMP JUMPDEST PUSH3 0x620 DUP2 DUP5 DUP5 PUSH3 0x5DA JUMP JUMPDEST POP POP POP JUMP JUMPDEST JUMPDEST DUP2 DUP2 LT ISZERO PUSH3 0x647 JUMPI PUSH3 0x63B PUSH0 DUP3 PUSH3 0x609 JUMP JUMPDEST PUSH1 0x1 DUP2 ADD SWAP1 POP PUSH3 0x626 JUMP JUMPDEST POP POP JUMP JUMPDEST PUSH1 0x1F DUP3 GT ISZERO PUSH3 0x696 JUMPI PUSH3 0x660 DUP2 PUSH3 0x51F JUMP JUMPDEST PUSH3 0x66B DUP5 PUSH3 0x531 JUMP JUMPDEST DUP2 ADD PUSH1 0x20 DUP6 LT ISZERO PUSH3 0x67B JUMPI DUP2 SWAP1 POP JUMPDEST PUSH3 0x693 PUSH3 0x68A DUP6 PUSH3 0x531 JUMP JUMPDEST DUP4 ADD DUP3 PUSH3 0x625 JUMP JUMPDEST POP POP JUMPDEST POP POP POP JUMP JUMPDEST PUSH0 DUP3 DUP3 SHR SWAP1 POP SWAP3 SWAP2 POP POP JUMP JUMPDEST PUSH0 PUSH3 0x6B8 PUSH0 NOT DUP5 PUSH1 0x8 MUL PUSH3 0x69B JUMP JUMPDEST NOT DUP1 DUP4 AND SWAP2 POP POP SWAP3 SWAP2 POP POP JUMP JUMPDEST PUSH0 PUSH3 0x6D2 DUP4 DUP4 PUSH3 0x6A7 JUMP JUMPDEST SWAP2 POP DUP3 PUSH1 0x2 MUL DUP3 OR SWAP1 POP SWAP3 SWAP2 POP POP JUMP JUMPDEST PUSH3 0x6ED DUP3 PUSH3 0x4B4 JUMP JUMPDEST PUSH8 0xFFFFFFFFFFFFFFFF DUP2 GT ISZERO PUSH3 0x709 JUMPI PUSH3 0x708 PUSH3 0x212 JUMP JUMPDEST JUMPDEST PUSH3 0x715 DUP3 SLOAD PUSH3 0x4EB JUMP JUMPDEST PUSH3 0x722 DUP3 DUP3 DUP6 PUSH3 0x64B JUMP JUMPDEST PUSH0 PUSH1 0x20 SWAP1 POP PUSH1 0x1F DUP4 GT PUSH1 0x1 DUP2 EQ PUSH3 0x758 JUMPI PUSH0 DUP5 ISZERO PUSH3 0x743 JUMPI DUP3 DUP8 ADD MLOAD SWAP1 POP JUMPDEST PUSH3 0x74F DUP6 DUP3 PUSH3 0x6C5 JUMP JUMPDEST DUP7 SSTORE POP PUSH3 0x7BE JUMP JUMPDEST PUSH1 0x1F NOT DUP5 AND PUSH3 0x768 DUP7 PUSH3 0x51F JUMP JUMPDEST PUSH0 JUMPDEST DUP3 DUP2 LT ISZERO PUSH3 0x791 JUMPI DUP5 DUP10 ADD MLOAD DUP3 SSTORE PUSH1 0x1 DUP3 ADD SWAP2 POP PUSH1 0x20 DUP6 ADD SWAP5 POP PUSH1 0x20 DUP2 ADD SWAP1 POP PUSH3 0x76A JUMP JUMPDEST DUP7 DUP4 LT ISZERO PUSH3 0x7B1 JUMPI DUP5 DUP10 ADD MLOAD PUSH3 0x7AD PUSH1 0x1F DUP10 AND DUP3 PUSH3 0x6A7 JUMP JUMPDEST DUP4 SSTORE POP JUMPDEST PUSH1 0x1 PUSH1 0x2 DUP9 MUL ADD DUP9 SSTORE POP POP POP JUMPDEST POP POP POP POP POP POP JUMP JUMPDEST PUSH0 DUP3 DUP3 MSTORE PUSH1 0x20 DUP3 ADD SWAP1 POP SWAP3 SWAP2 POP POP JUMP JUMPDEST PUSH32 0x45524332303A206D696E7420746F20746865207A65726F206164647265737300 PUSH0 DUP3 ADD MSTORE POP JUMP JUMPDEST PUSH0 PUSH3 0x80C PUSH1 0x1F DUP4 PUSH3 0x7C6 JUMP JUMPDEST SWAP2 POP PUSH3 0x819 DUP3 PUSH3 0x7D6 JUMP JUMPDEST PUSH1 0x20 DUP3 ADD SWAP1 POP SWAP2 SWAP1 POP JUMP JUMPDEST PUSH0 PUSH1 0x20 DUP3 ADD SWAP1 POP DUP2 DUP2 SUB PUSH0 DUP4 ADD MSTORE PUSH3 0x83D DUP2 PUSH3 0x7FE JUMP JUMPDEST SWAP1 POP SWAP2 SWAP1 POP JUMP JUMPDEST PUSH32 0x4E487B7100000000000000000000000000000000000000000000000000000000 PUSH0 MSTORE PUSH1 0x11 PUSH1 0x4 MSTORE PUSH1 0x24 PUSH0 REVERT JUMPDEST PUSH0 PUSH3 0x87D DUP3 PUSH3 0x3CF JUMP JUMPDEST SWAP2 POP PUSH3 0x88A DUP4 PUSH3 0x3CF JUMP JUMPDEST SWAP3 POP DUP3 DUP3 ADD SWAP1 POP DUP1 DUP3 GT ISZERO PUSH3 0x8A5 JUMPI PUSH3 0x8A4 PUSH3 0x844 JUMP JUMPDEST JUMPDEST SWAP3 SWAP2 POP POP JUMP JUMPDEST PUSH3 0x8B6 DUP2 PUSH3 0x3CF JUMP JUMPDEST DUP3 MSTORE POP POP JUMP JUMPDEST PUSH0 PUSH1 0x20 DUP3 ADD SWAP1 POP PUSH3 0x8D1 PUSH0 DUP4 ADD DUP5 PUSH3 0x8AB JUMP JUMPDEST SWAP3 SWAP2 POP POP JUMP JUMPDEST PUSH2 0x11C3 DUP1 PUSH3 0x8E5 PUSH0 CODECOPY PUSH0 RETURN INVALID PUSH1 0x80 PUSH1 0x40 MSTORE CALLVALUE DUP1 ISZERO PUSH2 0xF JUMPI PUSH0 DUP1 REVERT JUMPDEST POP PUSH1 0x4 CALLDATASIZE LT PUSH2 0xA7 JUMPI PUSH0 CALLDATALOAD PUSH1 0xE0 SHR DUP1 PUSH4 0x39509351 GT PUSH2 0x6F JUMPI DUP1 PUSH4 0x39509351 EQ PUSH2 0x165 JUMPI DUP1 PUSH4 0x70A08231 EQ PUSH2 0x195 JUMPI DUP1 PUSH4 0x95D89B41 EQ PUSH2 0x1C5 JUMPI DUP1 PUSH4 0xA457C2D7 EQ PUSH2 0x1E3 JUMPI DUP1 PUSH4 0xA9059CBB EQ PUSH2 0x213 JUMPI DUP1 PUSH4 0xDD62ED3E EQ PUSH2 0x243 JUMPI PUSH2 0xA7 JUMP JUMPDEST DUP1 PUSH4 0x6FDDE03 EQ PUSH2 0xAB JUMPI DUP1 PUSH4 0x95EA7B3 EQ PUSH2 0xC9 JUMPI DUP1 PUSH4 0x18160DDD EQ PUSH2 0xF9 JUMPI DUP1 PUSH4 0x23B872DD EQ PUSH2 0x117 JUMPI DUP1 PUSH4 0x313CE567 EQ PUSH2 0x147 JUMPI JUMPDEST PUSH0 DUP1 REVERT JUMPDEST PUSH2 0xB3 PUSH2 0x273 JUMP JUMPDEST PUSH1 0x40 MLOAD PUSH2 0xC0 SWAP2 SWAP1 PUSH2 0xADD JUMP JUMPDEST PUSH1 0x40 MLOAD DUP1 SWAP2 SUB SWAP1 RETURN JUMPDEST PUSH2 0xE3 PUSH1 0x4 DUP1 CALLDATASIZE SUB DUP2 ADD SWAP1 PUSH2 0xDE SWAP2 SWAP1 PUSH2 0xB8E JUMP JUMPDEST PUSH2 0x303 JUMP JUMPDEST PUSH1 0x40 MLOAD PUSH2 0xF0 SWAP2 SWAP1 PUSH2 0xBE6 JUMP JUMPDEST PUSH1 0x40 MLOAD DUP1 SWAP2 SUB SWAP1 RETURN JUMPDEST PUSH2 0x101 PUSH2 0x325 JUMP JUMPDEST PUSH1 0x40 MLOAD PUSH2 0x10E SWAP2 SWAP1 PUSH2 0xC0E JUMP JUMPDEST PUSH1 0x40 MLOAD DUP1 SWAP2 SUB SWAP1 RETURN JUMPDEST PUSH2 0x131 PUSH1 0x4 DUP1 CALLDATASIZE SUB DUP2 ADD SWAP1 PUSH2 0x12C SWAP2 SWAP1 PUSH2 0xC27 JUMP JUMPDEST PUSH2 0x32E JUMP JUMPDEST PUSH1 0x40 MLOAD PUSH2 0x13E SWAP2 SWAP1 PUSH2 0xBE6 JUMP JUMPDEST PUSH1 0x40 MLOAD DUP1 SWAP2 SUB SWAP1 RETURN JUMPDEST PUSH2 0x14F PUSH2 0x35C JUMP JUMPDEST PUSH1 0x40 MLOAD PUSH2 0x15C SWAP2 SWAP1 PUSH2 0xC92 JUMP JUMPDEST PUSH1 0x40 MLOAD DUP1 SWAP2 SUB SWAP1 RETURN JUMPDEST PUSH2 0x17F PUSH1 0x4 DUP1 CALLDATASIZE SUB DUP2 ADD SWAP1 PUSH2 0x17A SWAP2 SWAP1 PUSH2 0xB8E JUMP JUMPDEST PUSH2 0x364 JUMP JUMPDEST PUSH1 0x40 MLOAD PUSH2 0x18C SWAP2 SWAP1 PUSH2 0xBE6 JUMP JUMPDEST PUSH1 0x40 MLOAD DUP1 SWAP2 SUB SWAP1 RETURN JUMPDEST PUSH2 0x1AF PUSH1 0x4 DUP1 CALLDATASIZE SUB DUP2 ADD SWAP1 PUSH2 0x1AA SWAP2 SWAP1 PUSH2 0xCAB JUMP JUMPDEST PUSH2 0x39A JUMP JUMPDEST PUSH1 0x40 MLOAD PUSH2 0x1BC SWAP2 SWAP1 PUSH2 0xC0E JUMP JUMPDEST PUSH1 0x40 MLOAD DUP1 SWAP2 SUB SWAP1 RETURN JUMPDEST PUSH2 0x1CD PUSH2 0x3DF JUMP JUMPDEST PUSH1 0x40 MLOAD PUSH2 0x1DA SWAP2 SWAP1 PUSH2 0xADD JUMP JUMPDEST PUSH1 0x40 MLOAD DUP1 SWAP2 SUB SWAP1 RETURN JUMPDEST PUSH2 0x1FD PUSH1 0x4 DUP1 CALLDATASIZE SUB DUP2 ADD SWAP1 PUSH2 0x1F8 SWAP2 SWAP1 PUSH2 0xB8E JUMP JUMPDEST PUSH2 0x46F JUMP JUMPDEST PUSH1 0x40 MLOAD PUSH2 0x20A SWAP2 SWAP1 PUSH2 0xBE6 JUMP JUMPDEST PUSH1 0x40 MLOAD DUP1 SWAP2 SUB SWAP1 RETURN JUMPDEST PUSH2 0x22D PUSH1 0x4 DUP1 CALLDATASIZE SUB DUP2 ADD SWAP1 PUSH2 0x228 SWAP2 SWAP1 PUSH2 0xB8E JUMP JUMPDEST PUSH2 0x4E4 JUMP JUMPDEST PUSH1 0x40 MLOAD PUSH2 0x23A SWAP2 SWAP1 PUSH2 0xBE6 JUMP JUMPDEST PUSH1 0x40 MLOAD DUP1 SWAP2 SUB SWAP1 RETURN JUMPDEST PUSH2 0x25D PUSH1 0x4 DUP1 CALLDATASIZE SUB DUP2 ADD SWAP1 PUSH2 0x258 SWAP2 SWAP1 PUSH2 0xCD6 JUMP JUMPDEST PUSH2 0x506 JUMP JUMPDEST PUSH1 0x40 MLOAD PUSH2 0x26A SWAP2 SWAP1 PUSH2 0xC0E JUMP JUMPDEST PUSH1 0x40 MLOAD DUP1 SWAP2 SUB SWAP1 RETURN JUMPDEST PUSH1 0x60 PUSH1 0x3 DUP1 SLOAD PUSH2 0x282 SWAP1 PUSH2 0xD41 JUMP JUMPDEST DUP1 PUSH1 0x1F ADD PUSH1 0x20 DUP1 SWAP2 DIV MUL PUSH1 0x20 ADD PUSH1 0x40 MLOAD SWAP1 DUP2 ADD PUSH1 0x40 MSTORE DUP1 SWAP3 SWAP2 SWAP1 DUP2 DUP2 MSTORE PUSH1 0x20 ADD DUP3 DUP1 SLOAD PUSH2 0x2AE SWAP1 PUSH2 0xD41 JUMP JUMPDEST DUP1 ISZERO PUSH2 0x2F9 JUMPI DUP1 PUSH1 0x1F LT PUSH2 0x2D0 JUMPI PUSH2 0x100 DUP1 DUP4 SLOAD DIV MUL DUP4 MSTORE SWAP2 PUSH1 0x20 ADD SWAP2 PUSH2 0x2F9 JUMP JUMPDEST DUP3 ADD SWAP2 SWAP1 PUSH0 MSTORE PUSH1 0x20 PUSH0 KECCAK256 SWAP1 JUMPDEST DUP2 SLOAD DUP2 MSTORE SWAP1 PUSH1 0x1 ADD SWAP1 PUSH1 0x20 ADD DUP1 DUP4 GT PUSH2 0x2DC JUMPI DUP3 SWAP1 SUB PUSH1 0x1F AND DUP3 ADD SWAP2 JUMPDEST POP POP POP POP POP SWAP1 POP SWAP1 JUMP JUMPDEST PUSH0 DUP1 PUSH2 0x30D PUSH2 0x588 JUMP JUMPDEST SWAP1 POP PUSH2 0x31A DUP2 DUP6 DUP6 PUSH2 0x58F JUMP JUMPDEST PUSH1 0x1 SWAP2 POP POP SWAP3 SWAP2 POP POP JUMP JUMPDEST PUSH0 PUSH1 0x2 SLOAD SWAP1 POP SWAP1 JUMP JUMPDEST PUSH0 DUP1 PUSH2 0x338 PUSH2 0x588 JUMP JUMPDEST SWAP1 POP PUSH2 0x345 DUP6 DUP3 DUP6 PUSH2 0x752 JUMP JUMPDEST PUSH2 0x350 DUP6 DUP6 DUP6 PUSH2 0x7DD JUMP JUMPDEST PUSH1 0x1 SWAP2 POP POP SWAP4 SWAP3 POP POP POP JUMP JUMPDEST PUSH0 PUSH1 0x12 SWAP1 POP SWAP1 JUMP JUMPDEST PUSH0 DUP1 PUSH2 0x36E PUSH2 0x588 JUMP JUMPDEST SWAP1 POP PUSH2 0x38F DUP2 DUP6 DUP6 PUSH2 0x380 DUP6 DUP10 PUSH2 0x506 JUMP JUMPDEST PUSH2 0x38A SWAP2 SWAP1 PUSH2 0xD9E JUMP JUMPDEST PUSH2 0x58F JUMP JUMPDEST PUSH1 0x1 SWAP2 POP POP SWAP3 SWAP2 POP POP JUMP JUMPDEST PUSH0 DUP1 PUSH0 DUP4 PUSH20 0xFFFFFFFFFFFFFFFFFFFFFFFFFFFFFFFFFFFFFFFF AND PUSH20 0xFFFFFFFFFFFFFFFFFFFFFFFFFFFFFFFFFFFFFFFF AND DUP2 MSTORE PUSH1 0x20 ADD SWAP1 DUP2 MSTORE PUSH1 0x20 ADD PUSH0 KECCAK256 SLOAD SWAP1 POP SWAP2 SWAP1 POP JUMP JUMPDEST PUSH1 0x60 PUSH1 0x4 DUP1 SLOAD PUSH2 0x3EE SWAP1 PUSH2 0xD41 JUMP JUMPDEST DUP1 PUSH1 0x1F ADD PUSH1 0x20 DUP1 SWAP2 DIV MUL PUSH1 0x20 ADD PUSH1 0x40 MLOAD SWAP1 DUP2 ADD PUSH1 0x40 MSTORE DUP1 SWAP3 SWAP2 SWAP1 DUP2 DUP2 MSTORE PUSH1 0x20 ADD DUP3 DUP1 SLOAD PUSH2 0x41A SWAP1 PUSH2 0xD41 JUMP JUMPDEST DUP1 ISZERO PUSH2 0x465 JUMPI DUP1 PUSH1 0x1F LT PUSH2 0x43C JUMPI PUSH2 0x100 DUP1 DUP4 SLOAD DIV MUL DUP4 MSTORE SWAP2 PUSH1 0x20 ADD SWAP2 PUSH2 0x465 JUMP JUMPDEST DUP3 ADD SWAP2 SWAP1 PUSH0 MSTORE PUSH1 0x20 PUSH0 KECCAK256 SWAP1 JUMPDEST DUP2 SLOAD DUP2 MSTORE SWAP1 PUSH1 0x1 ADD SWAP1 PUSH1 0x20 ADD DUP1 DUP4 GT PUSH2 0x448 JUMPI DUP3 SWAP1 SUB PUSH1 0x1F AND DUP3 ADD SWAP2 JUMPDEST POP POP POP POP POP SWAP1 POP SWAP1 JUMP JUMPDEST PUSH0 DUP1 PUSH2 0x479 PUSH2 0x588 JUMP JUMPDEST SWAP1 POP PUSH0 PUSH2 0x486 DUP3 DUP7 PUSH2 0x506 JUMP JUMPDEST SWAP1 POP DUP4 DUP2 LT ISZERO PUSH2 0x4CB JUMPI PUSH1 0x40 MLOAD PUSH32 0x8C379A000000000000000000000000000000000000000000000000000000000 DUP2 MSTORE PUSH1 0x4 ADD PUSH2 0x4C2 SWAP1 PUSH2 0xE41 JUMP JUMPDEST PUSH1 0x40 MLOAD DUP1 SWAP2 SUB SWAP1 REVERT JUMPDEST PUSH2 0x4D8 DUP3 DUP7 DUP7 DUP5 SUB PUSH2 0x58F JUMP JUMPDEST PUSH1 0x1 SWAP3 POP POP POP SWAP3 SWAP2 POP POP JUMP JUMPDEST PUSH0 DUP1 PUSH2 0x4EE PUSH2 0x588 JUMP JUMPDEST SWAP1 POP PUSH2 0x4FB DUP2 DUP6 DUP6 PUSH2 0x7DD JUMP JUMPDEST PUSH1 0x1 SWAP2 POP POP SWAP3 SWAP2 POP POP JUMP JUMPDEST PUSH0 PUSH1 0x1 PUSH0 DUP5 PUSH20 0xFFFFFFFFFFFFFFFFFFFFFFFFFFFFFFFFFFFFFFFF AND PUSH20 0xFFFFFFFFFFFFFFFFFFFFFFFFFFFFFFFFFFFFFFFF AND DUP2 MSTORE PUSH1 0x20 ADD SWAP1 DUP2 MSTORE PUSH1 0x20 ADD PUSH0 KECCAK256 PUSH0 DUP4 PUSH20 0xFFFFFFFFFFFFFFFFFFFFFFFFFFFFFFFFFFFFFFFF AND PUSH20 0xFFFFFFFFFFFFFFFFFFFFFFFFFFFFFFFFFFFFFFFF AND DUP2 MSTORE PUSH1 0x20 ADD SWAP1 DUP2 MSTORE PUSH1 0x20 ADD PUSH0 KECCAK256 SLOAD SWAP1 POP SWAP3 SWAP2 POP POP JUMP JUMPDEST PUSH0 CALLER SWAP1 POP SWAP1 JUMP JUMPDEST PUSH0 PUSH20 0xFFFFFFFFFFFFFFFFFFFFFFFFFFFFFFFFFFFFFFFF AND DUP4 PUSH20 0xFFFFFFFFFFFFFFFFFFFFFFFFFFFFFFFFFFFFFFFF AND SUB PUSH2 0x5FD JUMPI PUSH1 0x40 MLOAD PUSH32 0x8C379A000000000000000000000000000000000000000000000000000000000 DUP2 MSTORE PUSH1 0x4 ADD PUSH2 0x5F4 SWAP1 PUSH2 0xECF JUMP JUMPDEST PUSH1 0x40 MLOAD DUP1 SWAP2 SUB SWAP1 REVERT JUMPDEST PUSH0 PUSH20 0xFFFFFFFFFFFFFFFFFFFFFFFFFFFFFFFFFFFFFFFF AND DUP3 PUSH20 0xFFFFFFFFFFFFFFFFFFFFFFFFFFFFFFFFFFFFFFFF AND SUB PUSH2 0x66B JUMPI PUSH1 0x40 MLOAD PUSH32 0x8C379A000000000000000000000000000000000000000000000000000000000 DUP2 MSTORE PUSH1 0x4 ADD PUSH2 0x662 SWAP1 PUSH2 0xF5D JUMP JUMPDEST PUSH1 0x40 MLOAD DUP1 SWAP2 SUB SWAP1 REVERT JUMPDEST DUP1 PUSH1 0x1 PUSH0 DUP6 PUSH20 0xFFFFFFFFFFFFFFFFFFFFFFFFFFFFFFFFFFFFFFFF AND PUSH20 0xFFFFFFFFFFFFFFFFFFFFFFFFFFFFFFFFFFFFFFFF AND DUP2 MSTORE PUSH1 0x20 ADD SWAP1 DUP2 MSTORE PUSH1 0x20 ADD PUSH0 KECCAK256 PUSH0 DUP5 PUSH20 0xFFFFFFFFFFFFFFFFFFFFFFFFFFFFFFFFFFFFFFFF AND PUSH20 0xFFFFFFFFFFFFFFFFFFFFFFFFFFFFFFFFFFFFFFFF AND DUP2 MSTORE PUSH1 0x20 ADD SWAP1 DUP2 MSTORE PUSH1 0x20 ADD PUSH0 KECCAK256 DUP2 SWAP1 SSTORE POP DUP2 PUSH20 0xFFFFFFFFFFFFFFFFFFFFFFFFFFFFFFFFFFFFFFFF AND DUP4 PUSH20 0xFFFFFFFFFFFFFFFFFFFFFFFFFFFFFFFFFFFFFFFF AND PUSH32 0x8C5BE1E5EBEC7D5BD14F71427D1E84F3DD0314C0F7B2291E5B200AC8C7C3B925 DUP4 PUSH1 0x40 MLOAD PUSH2 0x745 SWAP2 SWAP1 PUSH2 0xC0E JUMP JUMPDEST PUSH1 0x40 MLOAD DUP1 SWAP2 SUB SWAP1 LOG3 POP POP POP JUMP JUMPDEST PUSH0 PUSH2 0x75D DUP5 DUP5 PUSH2 0x506 JUMP JUMPDEST SWAP1 POP PUSH32 0xFFFFFFFFFFFFFFFFFFFFFFFFFFFFFFFFFFFFFFFFFFFFFFFFFFFFFFFFFFFFFFFF DUP2 EQ PUSH2 0x7D7 JUMPI DUP2 DUP2 LT ISZERO PUSH2 0x7C9 JUMPI PUSH1 0x40 MLOAD PUSH32 0x8C379A000000000000000000000000000000000000000000000000000000000 DUP2 MSTORE PUSH1 0x4 ADD PUSH2 0x7C0 SWAP1 PUSH2 0xFC5 JUMP JUMPDEST PUSH1 0x40 MLOAD DUP1 SWAP2 SUB SWAP1 REVERT JUMPDEST PUSH2 0x7D6 DUP5 DUP5 DUP5 DUP5 SUB PUSH2 0x58F JUMP JUMPDEST JUMPDEST POP POP POP POP JUMP JUMPDEST PUSH0 PUSH20 0xFFFFFFFFFFFFFFFFFFFFFFFFFFFFFFFFFFFFFFFF AND DUP4 PUSH20 0xFFFFFFFFFFFFFFFFFFFFFFFFFFFFFFFFFFFFFFFF AND SUB PUSH2 0x84B JUMPI PUSH1 0x40 MLOAD PUSH32 0x8C379A000000000000000000000000000000000000000000000000000000000 DUP2 MSTORE PUSH1 0x4 ADD PUSH2 0x842 SWAP1 PUSH2 0x1053 JUMP JUMPDEST PUSH1 0x40 MLOAD DUP1 SWAP2 SUB SWAP1 REVERT JUMPDEST PUSH0 PUSH20 0xFFFFFFFFFFFFFFFFFFFFFFFFFFFFFFFFFFFFFFFF AND DUP3 PUSH20 0xFFFFFFFFFFFFFFFFFFFFFFFFFFFFFFFFFFFFFFFF AND SUB PUSH2 0x8B9 JUMPI PUSH1 0x40 MLOAD PUSH32 0x8C379A000000000000000000000000000000000000000000000000000000000 DUP2 MSTORE PUSH1 0x4 ADD PUSH2 0x8B0 SWAP1 PUSH2 0x10E1 JUMP JUMPDEST PUSH1 0x40 MLOAD DUP1 SWAP2 SUB SWAP1 REVERT JUMPDEST PUSH2 0x8C4 DUP4 DUP4 DUP4 PUSH2 0xA49 JUMP JUMPDEST PUSH0 DUP1 PUSH0 DUP6 PUSH20 0xFFFFFFFFFFFFFFFFFFFFFFFFFFFFFFFFFFFFFFFF AND PUSH20 0xFFFFFFFFFFFFFFFFFFFFFFFFFFFFFFFFFFFFFFFF AND DUP2 MSTORE PUSH1 0x20 ADD SWAP1 DUP2 MSTORE PUSH1 0x20 ADD PUSH0 KECCAK256 SLOAD SWAP1 POP DUP2 DUP2 LT ISZERO PUSH2 0x947 JUMPI PUSH1 0x40 MLOAD PUSH32 0x8C379A000000000000000000000000000000000000000000000000000000000 DUP2 MSTORE PUSH1 0x4 ADD PUSH2 0x93E SWAP1 PUSH2 0x116F JUMP JUMPDEST PUSH1 0x40 MLOAD DUP1 SWAP2 SUB SWAP1 REVERT JUMPDEST DUP2 DUP2 SUB PUSH0 DUP1 DUP7 PUSH20 0xFFFFFFFFFFFFFFFFFFFFFFFFFFFFFFFFFFFFFFFF AND PUSH20 0xFFFFFFFFFFFFFFFFFFFFFFFFFFFFFFFFFFFFFFFF AND DUP2 MSTORE PUSH1 0x20 ADD SWAP1 DUP2 MSTORE PUSH1 0x20 ADD PUSH0 KECCAK256 DUP2 SWAP1 SSTORE POP DUP2 PUSH0 DUP1 DUP6 PUSH20 0xFFFFFFFFFFFFFFFFFFFFFFFFFFFFFFFFFFFFFFFF AND PUSH20 0xFFFFFFFFFFFFFFFFFFFFFFFFFFFFFFFFFFFFFFFF AND DUP2 MSTORE PUSH1 0x20 ADD SWAP1 DUP2 MSTORE PUSH1 0x20 ADD PUSH0 KECCAK256 PUSH0 DUP3 DUP3 SLOAD ADD SWAP3 POP POP DUP2 SWAP1 SSTORE POP DUP3 PUSH20 0xFFFFFFFFFFFFFFFFFFFFFFFFFFFFFFFFFFFFFFFF AND DUP5 PUSH20 0xFFFFFFFFFFFFFFFFFFFFFFFFFFFFFFFFFFFFFFFF AND PUSH32 0xDDF252AD1BE2C89B69C2B068FC378DAA952BA7F163C4A11628F55A4DF523B3EF DUP5 PUSH1 0x40 MLOAD PUSH2 0xA30 SWAP2 SWAP1 PUSH2 0xC0E JUMP JUMPDEST PUSH1 0x40 MLOAD DUP1 SWAP2 SUB SWAP1 LOG3 PUSH2 0xA43 DUP5 DUP5 DUP5 PUSH2 0xA4E JUMP JUMPDEST POP POP POP POP JUMP JUMPDEST POP POP POP JUMP JUMPDEST POP POP POP JUMP JUMPDEST PUSH0 DUP2 MLOAD SWAP1 POP SWAP2 SWAP1 POP JUMP JUMPDEST PUSH0 DUP3 DUP3 MSTORE PUSH1 0x20 DUP3 ADD SWAP1 POP SWAP3 SWAP2 POP POP JUMP JUMPDEST PUSH0 JUMPDEST DUP4 DUP2 LT ISZERO PUSH2 0xA8A JUMPI DUP1 DUP3 ADD MLOAD DUP2 DUP5 ADD MSTORE PUSH1 0x20 DUP2 ADD SWAP1 POP PUSH2 0xA6F JUMP JUMPDEST PUSH0 DUP5 DUP5 ADD MSTORE POP POP POP POP JUMP JUMPDEST PUSH0 PUSH1 0x1F NOT PUSH1 0x1F DUP4 ADD AND SWAP1 POP SWAP2 SWAP1 POP JUMP JUMPDEST PUSH0 PUSH2 0xAAF DUP3 PUSH2 0xA53 JUMP JUMPDEST PUSH2 0xAB9 DUP2 DUP6 PUSH2 0xA5D JUMP JUMPDEST SWAP4 POP PUSH2 0xAC9 DUP2 DUP6 PUSH1 0x20 DUP7 ADD PUSH2 0xA6D JUMP JUMPDEST PUSH2 0xAD2 DUP2 PUSH2 0xA95 JUMP JUMPDEST DUP5 ADD SWAP2 POP POP SWAP3 SWAP2 POP POP JUMP JUMPDEST PUSH0 PUSH1 0x20 DUP3 ADD SWAP1 POP DUP2 DUP2 SUB PUSH0 DUP4 ADD MSTORE PUSH2 0xAF5 DUP2 DUP5 PUSH2 0xAA5 JUMP JUMPDEST SWAP1 POP SWAP3 SWAP2 POP POP JUMP JUMPDEST PUSH0 DUP1 REVERT JUMPDEST PUSH0 PUSH20 0xFFFFFFFFFFFFFFFFFFFFFFFFFFFFFFFFFFFFFFFF DUP3 AND SWAP1 POP SWAP2 SWAP1 POP JUMP JUMPDEST PUSH0 PUSH2 0xB2A DUP3 PUSH2 0xB01 JUMP JUMPDEST SWAP1 POP SWAP2 SWAP1 POP JUMP JUMPDEST PUSH2 0xB3A DUP2 PUSH2 0xB20 JUMP JUMPDEST DUP2 EQ PUSH2 0xB44 JUMPI PUSH0 DUP1 REVERT JUMPDEST POP JUMP JUMPDEST PUSH0 DUP2 CALLDATALOAD SWAP1 POP PUSH2 0xB55 DUP2 PUSH2 0xB31 JUMP JUMPDEST SWAP3 SWAP2 POP POP JUMP JUMPDEST PUSH0 DUP2 SWAP1 POP SWAP2 SWAP1 POP JUMP JUMPDEST PUSH2 0xB6D DUP2 PUSH2 0xB5B JUMP JUMPDEST DUP2 EQ PUSH2 0xB77 JUMPI PUSH0 DUP1 REVERT JUMPDEST POP JUMP JUMPDEST PUSH0 DUP2 CALLDATALOAD SWAP1 POP PUSH2 0xB88 DUP2 PUSH2 0xB64 JUMP JUMPDEST SWAP3 SWAP2 POP POP JUMP JUMPDEST PUSH0 DUP1 PUSH1 0x40 DUP4 DUP6 SUB SLT ISZERO PUSH2 0xBA4 JUMPI PUSH2 0xBA3 PUSH2 0xAFD JUMP JUMPDEST JUMPDEST PUSH0 PUSH2 0xBB1 DUP6 DUP3 DUP7 ADD PUSH2 0xB47 JUMP JUMPDEST SWAP3 POP POP PUSH1 0x20 PUSH2 0xBC2 DUP6 DUP3 DUP7 ADD PUSH2 0xB7A JUMP JUMPDEST SWAP2 POP POP SWAP3 POP SWAP3 SWAP1 POP JUMP JUMPDEST PUSH0 DUP2 ISZERO ISZERO SWAP1 POP SWAP2 SWAP1 POP JUMP JUMPDEST PUSH2 0xBE0 DUP2 PUSH2 0xBCC JUMP JUMPDEST DUP3 MSTORE POP POP JUMP JUMPDEST PUSH0 PUSH1 0x20 DUP3 ADD SWAP1 POP PUSH2 0xBF9 PUSH0 DUP4 ADD DUP5 PUSH2 0xBD7 JUMP JUMPDEST SWAP3 SWAP2 POP POP JUMP JUMPDEST PUSH2 0xC08 DUP2 PUSH2 0xB5B JUMP JUMPDEST DUP3 MSTORE POP POP JUMP JUMPDEST PUSH0 PUSH1 0x20 DUP3 ADD SWAP1 POP PUSH2 0xC21 PUSH0 DUP4 ADD DUP5 PUSH2 0xBFF JUMP JUMPDEST SWAP3 SWAP2 POP POP JUMP JUMPDEST PUSH0 DUP1 PUSH0 PUSH1 0x60 DUP5 DUP7 SUB SLT ISZERO PUSH2 0xC3E JUMPI PUSH2 0xC3D PUSH2 0xAFD JUMP JUMPDEST JUMPDEST PUSH0 PUSH2 0xC4B DUP7 DUP3 DUP8 ADD PUSH2 0xB47 JUMP JUMPDEST SWAP4 POP POP PUSH1 0x20 PUSH2 0xC5C DUP7 DUP3 DUP8 ADD PUSH2 0xB47 JUMP JUMPDEST SWAP3 POP POP PUSH1 0x40 PUSH2 0xC6D DUP7 DUP3 DUP8 ADD PUSH2 0xB7A JUMP JUMPDEST SWAP2 POP POP SWAP3 POP SWAP3 POP SWAP3 JUMP JUMPDEST PUSH0 PUSH1 0xFF DUP3 AND SWAP1 POP SWAP2 SWAP1 POP JUMP JUMPDEST PUSH2 0xC8C DUP2 PUSH2 0xC77 JUMP JUMPDEST DUP3 MSTORE POP POP JUMP JUMPDEST PUSH0 PUSH1 0x20 DUP3 ADD SWAP1 POP PUSH2 0xCA5 PUSH0 DUP4 ADD DUP5 PUSH2 0xC83 JUMP JUMPDEST SWAP3 SWAP2 POP POP JUMP JUMPDEST PUSH0 PUSH1 0x20 DUP3 DUP5 SUB SLT ISZERO PUSH2 0xCC0 JUMPI PUSH2 0xCBF PUSH2 0xAFD JUMP JUMPDEST JUMPDEST PUSH0 PUSH2 0xCCD DUP5 DUP3 DUP6 ADD PUSH2 0xB47 JUMP JUMPDEST SWAP2 POP POP SWAP3 SWAP2 POP POP JUMP JUMPDEST PUSH0 DUP1 PUSH1 0x40 DUP4 DUP6 SUB SLT ISZERO PUSH2 0xCEC JUMPI PUSH2 0xCEB PUSH2 0xAFD JUMP JUMPDEST JUMPDEST PUSH0 PUSH2 0xCF9 DUP6 DUP3 DUP7 ADD PUSH2 0xB47 JUMP JUMPDEST SWAP3 POP POP PUSH1 0x20 PUSH2 0xD0A DUP6 DUP3 DUP7 ADD PUSH2 0xB47 JUMP JUMPDEST SWAP2 POP POP SWAP3 POP SWAP3 SWAP1 POP JUMP JUMPDEST PUSH32 0x4E487B7100000000000000000000000000000000000000000000000000000000 PUSH0 MSTORE PUSH1 0x22 PUSH1 0x4 MSTORE PUSH1 0x24 PUSH0 REVERT JUMPDEST PUSH0 PUSH1 0x2 DUP3 DIV SWAP1 POP PUSH1 0x1 DUP3 AND DUP1 PUSH2 0xD58 JUMPI PUSH1 0x7F DUP3 AND SWAP2 POP JUMPDEST PUSH1 0x20 DUP3 LT DUP2 SUB PUSH2 0xD6B JUMPI PUSH2 0xD6A PUSH2 0xD14 JUMP JUMPDEST JUMPDEST POP SWAP2 SWAP1 POP JUMP JUMPDEST PUSH32 0x4E487B7100000000000000000000000000000000000000000000000000000000 PUSH0 MSTORE PUSH1 0x11 PUSH1 0x4 MSTORE PUSH1 0x24 PUSH0 REVERT JUMPDEST PUSH0 PUSH2 0xDA8 DUP3 PUSH2 0xB5B JUMP JUMPDEST SWAP2 POP PUSH2 0xDB3 DUP4 PUSH2 0xB5B JUMP JUMPDEST SWAP3 POP DUP3 DUP3 ADD SWAP1 POP DUP1 DUP3 GT ISZERO PUSH2 0xDCB JUMPI PUSH2 0xDCA PUSH2 0xD71 JUMP JUMPDEST JUMPDEST SWAP3 SWAP2 POP POP JUMP JUMPDEST PUSH32 0x45524332303A2064656372656173656420616C6C6F77616E63652062656C6F77 PUSH0 DUP3 ADD MSTORE PUSH32 0x207A65726F000000000000000000000000000000000000000000000000000000 PUSH1 0x20 DUP3 ADD MSTORE POP JUMP JUMPDEST PUSH0 PUSH2 0xE2B PUSH1 0x25 DUP4 PUSH2 0xA5D JUMP JUMPDEST SWAP2 POP PUSH2 0xE36 DUP3 PUSH2 0xDD1 JUMP JUMPDEST PUSH1 0x40 DUP3 ADD SWAP1 POP SWAP2 SWAP1 POP JUMP JUMPDEST PUSH0 PUSH1 0x20 DUP3 ADD SWAP1 POP DUP2 DUP2 SUB PUSH0 DUP4 ADD MSTORE PUSH2 0xE58 DUP2 PUSH2 0xE1F JUMP JUMPDEST SWAP1 POP SWAP2 SWAP1 POP JUMP JUMPDEST PUSH32 0x45524332303A20617070726F76652066726F6D20746865207A65726F20616464 PUSH0 DUP3 ADD MSTORE PUSH32 0x7265737300000000000000000000000000000000000000000000000000000000 PUSH1 0x20 DUP3 ADD MSTORE POP JUMP JUMPDEST PUSH0 PUSH2 0xEB9 PUSH1 0x24 DUP4 PUSH2 0xA5D JUMP JUMPDEST SWAP2 POP PUSH2 0xEC4 DUP3 PUSH2 0xE5F JUMP JUMPDEST PUSH1 0x40 DUP3 ADD SWAP1 POP SWAP2 SWAP1 POP JUMP JUMPDEST PUSH0 PUSH1 0x20 DUP3 ADD SWAP1 POP DUP2 DUP2 SUB PUSH0 DUP4 ADD MSTORE PUSH2 0xEE6 DUP2 PUSH2 0xEAD JUMP JUMPDEST SWAP1 POP SWAP2 SWAP1 POP JUMP JUMPDEST PUSH32 0x45524332303A20617070726F766520746F20746865207A65726F206164647265 PUSH0 DUP3 ADD MSTORE PUSH32 0x7373000000000000000000000000000000000000000000000000000000000000 PUSH1 0x20 DUP3 ADD MSTORE POP JUMP JUMPDEST PUSH0 PUSH2 0xF47 PUSH1 0x22 DUP4 PUSH2 0xA5D JUMP JUMPDEST SWAP2 POP PUSH2 0xF52 DUP3 PUSH2 0xEED JUMP JUMPDEST PUSH1 0x40 DUP3 ADD SWAP1 POP SWAP2 SWAP1 POP JUMP JUMPDEST PUSH0 PUSH1 0x20 DUP3 ADD SWAP1 POP DUP2 DUP2 SUB PUSH0 DUP4 ADD MSTORE PUSH2 0xF74 DUP2 PUSH2 0xF3B JUMP JUMPDEST SWAP1 POP SWAP2 SWAP1 POP JUMP JUMPDEST PUSH32 0x45524332303A20696E73756666696369656E7420616C6C6F77616E6365000000 PUSH0 DUP3 ADD MSTORE POP JUMP JUMPDEST PUSH0 PUSH2 0xFAF PUSH1 0x1D DUP4 PUSH2 0xA5D JUMP JUMPDEST SWAP2 POP PUSH2 0xFBA DUP3 PUSH2 0xF7B JUMP JUMPDEST PUSH1 0x20 DUP3 ADD SWAP1 POP SWAP2 SWAP1 POP JUMP JUMPDEST PUSH0 PUSH1 0x20 DUP3 ADD SWAP1 POP DUP2 DUP2 SUB PUSH0 DUP4 ADD MSTORE PUSH2 0xFDC DUP2 PUSH2 0xFA3 JUMP JUMPDEST SWAP1 POP SWAP2 SWAP1 POP JUMP JUMPDEST PUSH32 0x45524332303A207472616E736665722066726F6D20746865207A65726F206164 PUSH0 DUP3 ADD MSTORE PUSH32 0x6472657373000000000000000000000000000000000000000000000000000000 PUSH1 0x20 DUP3 ADD MSTORE POP JUMP JUMPDEST PUSH0 PUSH2 0x103D PUSH1 0x25 DUP4 PUSH2 0xA5D JUMP JUMPDEST SWAP2 POP PUSH2 0x1048 DUP3 PUSH2 0xFE3 JUMP JUMPDEST PUSH1 0x40 DUP3 ADD SWAP1 POP SWAP2 SWAP1 POP JUMP JUMPDEST PUSH0 PUSH1 0x20 DUP3 ADD SWAP1 POP DUP2 DUP2 SUB PUSH0 DUP4 ADD MSTORE PUSH2 0x106A DUP2 PUSH2 0x1031 JUMP JUMPDEST SWAP1 POP SWAP2 SWAP1 POP JUMP JUMPDEST PUSH32 0x45524332303A207472616E7366657220746F20746865207A65726F2061646472 PUSH0 DUP3 ADD MSTORE PUSH32 0x6573730000000000000000000000000000000000000000000000000000000000 PUSH1 0x20 DUP3 ADD MSTORE POP JUMP JUMPDEST PUSH0 PUSH2 0x10CB PUSH1 0x23 DUP4 PUSH2 0xA5D JUMP JUMPDEST SWAP2 POP PUSH2 0x10D6 DUP3 PUSH2 0x1071 JUMP JUMPDEST PUSH1 0x40 DUP3 ADD SWAP1 POP SWAP2 SWAP1 POP JUMP JUMPDEST PUSH0 PUSH1 0x20 DUP3 ADD SWAP1 POP DUP2 DUP2 SUB PUSH0 DUP4 ADD MSTORE PUSH2 0x10F8 DUP2 PUSH2 0x10BF JUMP JUMPDEST SWAP1 POP SWAP2 SWAP1 POP JUMP JUMPDEST PUSH32 0x45524332303A207472616E7366657220616D6F756E7420657863656564732062 PUSH0 DUP3 ADD MSTORE PUSH32 0x616C616E63650000000000000000000000000000000000000000000000000000 PUSH1 0x20 DUP3 ADD MSTORE POP JUMP JUMPDEST PUSH0 PUSH2 0x1159 PUSH1 0x26 DUP4 PUSH2 0xA5D JUMP JUMPDEST SWAP2 POP PUSH2 0x1164 DUP3 PUSH2 0x10FF JUMP JUMPDEST PUSH1 0x40 DUP3 ADD SWAP1 POP SWAP2 SWAP1 POP JUMP JUMPDEST PUSH0 PUSH1 0x20 DUP3 ADD SWAP1 POP DUP2 DUP2 SUB PUSH0 DUP4 ADD MSTORE PUSH2 0x1186 DUP2 PUSH2 0x114D JUMP JUMPDEST SWAP1 POP SWAP2 SWAP1 POP JUMP INVALID LOG2 PUSH5 0x6970667358 0x22 SLT KECCAK256 SSTORE BYTE 0xCB EXP 0x2C 0xA5 PUSH6 0xA546F05EEF17 0xD5 0xCF 0xA8 0xC2 0xD8 0xF PUSH18 0x5E03ABF15DDA0FE82033171764736F6C6343 STOP ADDMOD ISZERO STOP CALLER LOG2 PUSH5 0x6970667358 0x22 SLT KECCAK256 OR CREATE2 0xDA 0xA7 DUP3 EXTCODESIZE EXTCODEHASH 0xD9 PUSH21 0x8D4733A41D6764F23DBB892E25CBCB9772C197BEB1 0xC5 0xE4 PUSH5 0x736F6C6343 STOP ADDMOD ISZERO STOP CALLER "
		},
		"gasEstimates": {
			"creation": {
				"codeDepositCost": "2009000",
				"executionCost": "2125",
				"totalCost": "2011125"
			},
			"external": {
				"createToken(string,string,uint256)": "infinite",
				"tokens(address)": "infinite"
			}
		},
		"methodIdentifiers": {
			"createToken(string,string,uint256)": "5b060530",
			"tokens(address)": "e4860339"
		}
	},
	"abi": [
		{
			"anonymous": false,
			"inputs": [
				{
					"indexed": true,
					"internalType": "address",
					"name": "tokenAddress",
					"type": "address"
				},
				{
					"indexed": true,
					"internalType": "address",
					"name": "owner",
					"type": "address"
				}
			],
			"name": "TokenCreated",
			"type": "event"
		},
		{
			"inputs": [
				{
					"internalType": "string",
					"name": "name",
					"type": "string"
				},
				{
					"internalType": "string",
					"name": "symbol",
					"type": "string"
				},
				{
					"internalType": "uint256",
					"name": "initialSupply",
					"type": "uint256"
				}
			],
			"name": "createToken",
			"outputs": [],
			"stateMutability": "nonpayable",
			"type": "function"
		},
		{
			"inputs": [
				{
					"internalType": "address",
					"name": "",
					"type": "address"
				}
			],
			"name": "tokens",
			"outputs": [
				{
					"internalType": "string",
					"name": "name",
					"type": "string"
				},
				{
					"internalType": "string",
					"name": "symbol",
					"type": "string"
				},
				{
					"internalType": "uint256",
					"name": "initialSupply",
					"type": "uint256"
				},
				{
					"internalType": "address",
					"name": "owner",
					"type": "address"
				}
			],
			"stateMutability": "view",
			"type": "function"
		}
	]
}